{
	"Solidity/Solidity/Contracts/Projects/twitter_modifiers.sol": {
		"twitterModifiers": {
			"abi": [
				{
					"inputs": [],
					"stateMutability": "nonpayable",
					"type": "constructor"
				},
				{
					"inputs": [],
					"name": "MAX_TWEET_LENGTH",
					"outputs": [
						{
							"internalType": "uint16",
							"name": "",
							"type": "uint16"
						}
					],
					"stateMutability": "view",
					"type": "function"
				},
				{
					"inputs": [
						{
							"internalType": "uint16",
							"name": "newTweetLength",
							"type": "uint16"
						}
					],
					"name": "changeTweetLength",
					"outputs": [],
					"stateMutability": "nonpayable",
					"type": "function"
				},
				{
					"inputs": [
						{
							"internalType": "string",
							"name": "tweetContent",
							"type": "string"
						}
					],
					"name": "createTweet",
					"outputs": [],
					"stateMutability": "nonpayable",
					"type": "function"
				},
				{
					"inputs": [
						{
							"internalType": "address",
							"name": "_author",
							"type": "address"
						}
					],
					"name": "getTweets",
					"outputs": [
						{
							"components": [
								{
									"internalType": "uint256",
									"name": "id",
									"type": "uint256"
								},
								{
									"internalType": "address",
									"name": "author",
									"type": "address"
								},
								{
									"internalType": "string",
									"name": "content",
									"type": "string"
								},
								{
									"internalType": "uint256",
									"name": "timestamp",
									"type": "uint256"
								},
								{
									"internalType": "uint256",
									"name": "likes",
									"type": "uint256"
								}
							],
							"internalType": "struct twitterModifiers.Tweet[]",
							"name": "",
							"type": "tuple[]"
						}
					],
					"stateMutability": "view",
					"type": "function"
				},
				{
					"inputs": [],
					"name": "owner",
					"outputs": [
						{
							"internalType": "address",
							"name": "",
							"type": "address"
						}
					],
					"stateMutability": "view",
					"type": "function"
				},
				{
					"inputs": [
						{
							"internalType": "address",
							"name": "_author",
							"type": "address"
						},
						{
							"internalType": "uint256",
							"name": "_i",
							"type": "uint256"
						}
					],
					"name": "singleTweet",
					"outputs": [
						{
							"components": [
								{
									"internalType": "uint256",
									"name": "id",
									"type": "uint256"
								},
								{
									"internalType": "address",
									"name": "author",
									"type": "address"
								},
								{
									"internalType": "string",
									"name": "content",
									"type": "string"
								},
								{
									"internalType": "uint256",
									"name": "timestamp",
									"type": "uint256"
								},
								{
									"internalType": "uint256",
									"name": "likes",
									"type": "uint256"
								}
							],
							"internalType": "struct twitterModifiers.Tweet",
							"name": "",
							"type": "tuple"
						}
					],
					"stateMutability": "view",
					"type": "function"
				},
				{
					"inputs": [
						{
							"internalType": "address",
							"name": "",
							"type": "address"
						},
						{
							"internalType": "uint256",
							"name": "",
							"type": "uint256"
						}
					],
					"name": "tweets",
					"outputs": [
						{
							"internalType": "uint256",
							"name": "id",
							"type": "uint256"
						},
						{
							"internalType": "address",
							"name": "author",
							"type": "address"
						},
						{
							"internalType": "string",
							"name": "content",
							"type": "string"
						},
						{
							"internalType": "uint256",
							"name": "timestamp",
							"type": "uint256"
						},
						{
							"internalType": "uint256",
							"name": "likes",
							"type": "uint256"
						}
					],
					"stateMutability": "view",
					"type": "function"
				}
			],
			"devdoc": {
				"kind": "dev",
				"methods": {},
				"version": 1
			},
			"evm": {
				"assembly": "    /* \"Solidity/Solidity/Contracts/Projects/twitter_modifiers.sol\":60:1671  contract twitterModifiers{... */\n  mstore(0x40, 0x80)\n    /* \"Solidity/Solidity/Contracts/Projects/twitter_modifiers.sol\":127:128  5 */\n  0x05\n    /* \"Solidity/Solidity/Contracts/Projects/twitter_modifiers.sol\":94:128  uint16 public MAX_TWEET_LENGTH = 5 */\n  0x00\n  dup1\n  0x0100\n  exp\n  dup2\n  sload\n  dup2\n  0xffff\n  mul\n  not\n  and\n  swap1\n  dup4\n  0xffff\n  and\n  mul\n  or\n  swap1\n  sstore\n  pop\n    /* \"Solidity/Solidity/Contracts/Projects/twitter_modifiers.sol\":474:524  constructor(){... */\n  callvalue\n  dup1\n  iszero\n  tag_1\n  jumpi\n  0x00\n  dup1\n  revert\ntag_1:\n  pop\n    /* \"Solidity/Solidity/Contracts/Projects/twitter_modifiers.sol\":506:516  msg.sender */\n  caller\n    /* \"Solidity/Solidity/Contracts/Projects/twitter_modifiers.sol\":498:503  owner */\n  0x02\n  0x00\n    /* \"Solidity/Solidity/Contracts/Projects/twitter_modifiers.sol\":498:516  owner = msg.sender */\n  0x0100\n  exp\n  dup2\n  sload\n  dup2\n  0xffffffffffffffffffffffffffffffffffffffff\n  mul\n  not\n  and\n  swap1\n  dup4\n  0xffffffffffffffffffffffffffffffffffffffff\n  and\n  mul\n  or\n  swap1\n  sstore\n  pop\n    /* \"Solidity/Solidity/Contracts/Projects/twitter_modifiers.sol\":60:1671  contract twitterModifiers{... */\n  dataSize(sub_0)\n  dup1\n  dataOffset(sub_0)\n  0x00\n  codecopy\n  0x00\n  return\nstop\n\nsub_0: assembly {\n        /* \"Solidity/Solidity/Contracts/Projects/twitter_modifiers.sol\":60:1671  contract twitterModifiers{... */\n      mstore(0x40, 0x80)\n      callvalue\n      dup1\n      iszero\n      tag_1\n      jumpi\n      0x00\n      dup1\n      revert\n    tag_1:\n      pop\n      jumpi(tag_2, lt(calldatasize, 0x04))\n      shr(0xe0, calldataload(0x00))\n      dup1\n      0x6eb10797\n      gt\n      tag_10\n      jumpi\n      dup1\n      0x6eb10797\n      eq\n      tag_6\n      jumpi\n      dup1\n      0x7c9cd2bc\n      eq\n      tag_7\n      jumpi\n      dup1\n      0x8da5cb5b\n      eq\n      tag_8\n      jumpi\n      dup1\n      0x9e92b093\n      eq\n      tag_9\n      jumpi\n      jump(tag_2)\n    tag_10:\n      dup1\n      0x05a1b4a9\n      eq\n      tag_3\n      jumpi\n      dup1\n      0x254e4019\n      eq\n      tag_4\n      jumpi\n      dup1\n      0x58bfa4ab\n      eq\n      tag_5\n      jumpi\n    tag_2:\n      0x00\n      dup1\n      revert\n        /* \"Solidity/Solidity/Contracts/Projects/twitter_modifiers.sol\":394:436  mapping (address => Tweet[]) public tweets */\n    tag_3:\n      tag_11\n      0x04\n      dup1\n      calldatasize\n      sub\n      dup2\n      add\n      swap1\n      tag_12\n      swap2\n      swap1\n      tag_13\n      jump\t// in\n    tag_12:\n      tag_14\n      jump\t// in\n    tag_11:\n      mload(0x40)\n      tag_15\n      swap6\n      swap5\n      swap4\n      swap3\n      swap2\n      swap1\n      tag_16\n      jump\t// in\n    tag_15:\n      mload(0x40)\n      dup1\n      swap2\n      sub\n      swap1\n      return\n        /* \"Solidity/Solidity/Contracts/Projects/twitter_modifiers.sol\":1537:1665  function singleTweet(address _author, uint _i) external view returns (Tweet memory){... */\n    tag_4:\n      tag_17\n      0x04\n      dup1\n      calldatasize\n      sub\n      dup2\n      add\n      swap1\n      tag_18\n      swap2\n      swap1\n      tag_13\n      jump\t// in\n    tag_18:\n      tag_19\n      jump\t// in\n    tag_17:\n      mload(0x40)\n      tag_20\n      swap2\n      swap1\n      tag_21\n      jump\t// in\n    tag_20:\n      mload(0x40)\n      dup1\n      swap2\n      sub\n      swap1\n      return\n        /* \"Solidity/Solidity/Contracts/Projects/twitter_modifiers.sol\":1220:1338  function changeTweetLength(uint16 newTweetLength) public onlyOwner{... */\n    tag_5:\n      tag_22\n      0x04\n      dup1\n      calldatasize\n      sub\n      dup2\n      add\n      swap1\n      tag_23\n      swap2\n      swap1\n      tag_24\n      jump\t// in\n    tag_23:\n      tag_25\n      jump\t// in\n    tag_22:\n      stop\n        /* \"Solidity/Solidity/Contracts/Projects/twitter_modifiers.sol\":94:128  uint16 public MAX_TWEET_LENGTH = 5 */\n    tag_6:\n      tag_26\n      tag_27\n      jump\t// in\n    tag_26:\n      mload(0x40)\n      tag_28\n      swap2\n      swap1\n      tag_29\n      jump\t// in\n    tag_28:\n      mload(0x40)\n      dup1\n      swap2\n      sub\n      swap1\n      return\n        /* \"Solidity/Solidity/Contracts/Projects/twitter_modifiers.sol\":644:1212  function createTweet(string memory tweetContent)public {... */\n    tag_7:\n      tag_30\n      0x04\n      dup1\n      calldatasize\n      sub\n      dup2\n      add\n      swap1\n      tag_31\n      swap2\n      swap1\n      tag_32\n      jump\t// in\n    tag_31:\n      tag_33\n      jump\t// in\n    tag_30:\n      stop\n        /* \"Solidity/Solidity/Contracts/Projects/twitter_modifiers.sol\":445:465  address public owner */\n    tag_8:\n      tag_34\n      tag_35\n      jump\t// in\n    tag_34:\n      mload(0x40)\n      tag_36\n      swap2\n      swap1\n      tag_37\n      jump\t// in\n    tag_36:\n      mload(0x40)\n      dup1\n      swap2\n      sub\n      swap1\n      return\n        /* \"Solidity/Solidity/Contracts/Projects/twitter_modifiers.sol\":1380:1495  function getTweets(address _author) external view returns (Tweet[] memory){... */\n    tag_9:\n      tag_38\n      0x04\n      dup1\n      calldatasize\n      sub\n      dup2\n      add\n      swap1\n      tag_39\n      swap2\n      swap1\n      tag_40\n      jump\t// in\n    tag_39:\n      tag_41\n      jump\t// in\n    tag_38:\n      mload(0x40)\n      tag_42\n      swap2\n      swap1\n      tag_43\n      jump\t// in\n    tag_42:\n      mload(0x40)\n      dup1\n      swap2\n      sub\n      swap1\n      return\n        /* \"Solidity/Solidity/Contracts/Projects/twitter_modifiers.sol\":394:436  mapping (address => Tweet[]) public tweets */\n    tag_14:\n      mstore(0x20, 0x01)\n      dup2\n      0x00\n      mstore\n      keccak256(0x00, 0x40)\n      dup2\n      dup2\n      sload\n      dup2\n      lt\n      tag_44\n      jumpi\n      0x00\n      dup1\n      revert\n    tag_44:\n      swap1\n      0x00\n      mstore\n      keccak256(0x00, 0x20)\n      swap1\n      0x05\n      mul\n      add\n      0x00\n      swap2\n      pop\n      swap2\n      pop\n      pop\n      dup1\n      0x00\n      add\n      sload\n      swap1\n      dup1\n      0x01\n      add\n      0x00\n      swap1\n      sload\n      swap1\n      0x0100\n      exp\n      swap1\n      div\n      0xffffffffffffffffffffffffffffffffffffffff\n      and\n      swap1\n      dup1\n      0x02\n      add\n      dup1\n      sload\n      tag_46\n      swap1\n      tag_47\n      jump\t// in\n    tag_46:\n      dup1\n      0x1f\n      add\n      0x20\n      dup1\n      swap2\n      div\n      mul\n      0x20\n      add\n      mload(0x40)\n      swap1\n      dup2\n      add\n      0x40\n      mstore\n      dup1\n      swap3\n      swap2\n      swap1\n      dup2\n      dup2\n      mstore\n      0x20\n      add\n      dup3\n      dup1\n      sload\n      tag_48\n      swap1\n      tag_47\n      jump\t// in\n    tag_48:\n      dup1\n      iszero\n      tag_49\n      jumpi\n      dup1\n      0x1f\n      lt\n      tag_50\n      jumpi\n      0x0100\n      dup1\n      dup4\n      sload\n      div\n      mul\n      dup4\n      mstore\n      swap2\n      0x20\n      add\n      swap2\n      jump(tag_49)\n    tag_50:\n      dup3\n      add\n      swap2\n      swap1\n      0x00\n      mstore\n      keccak256(0x00, 0x20)\n      swap1\n    tag_51:\n      dup2\n      sload\n      dup2\n      mstore\n      swap1\n      0x01\n      add\n      swap1\n      0x20\n      add\n      dup1\n      dup4\n      gt\n      tag_51\n      jumpi\n      dup3\n      swap1\n      sub\n      0x1f\n      and\n      dup3\n      add\n      swap2\n    tag_49:\n      pop\n      pop\n      pop\n      pop\n      pop\n      swap1\n      dup1\n      0x03\n      add\n      sload\n      swap1\n      dup1\n      0x04\n      add\n      sload\n      swap1\n      pop\n      dup6\n      jump\t// out\n        /* \"Solidity/Solidity/Contracts/Projects/twitter_modifiers.sol\":1537:1665  function singleTweet(address _author, uint _i) external view returns (Tweet memory){... */\n    tag_19:\n        /* \"Solidity/Solidity/Contracts/Projects/twitter_modifiers.sol\":1607:1619  Tweet memory */\n      tag_52\n      tag_53\n      jump\t// in\n    tag_52:\n        /* \"Solidity/Solidity/Contracts/Projects/twitter_modifiers.sol\":1638:1644  tweets */\n      0x01\n        /* \"Solidity/Solidity/Contracts/Projects/twitter_modifiers.sol\":1638:1653  tweets[_author] */\n      0x00\n        /* \"Solidity/Solidity/Contracts/Projects/twitter_modifiers.sol\":1645:1652  _author */\n      dup5\n        /* \"Solidity/Solidity/Contracts/Projects/twitter_modifiers.sol\":1638:1653  tweets[_author] */\n      0xffffffffffffffffffffffffffffffffffffffff\n      and\n      0xffffffffffffffffffffffffffffffffffffffff\n      and\n      dup2\n      mstore\n      0x20\n      add\n      swap1\n      dup2\n      mstore\n      0x20\n      add\n      0x00\n      keccak256\n        /* \"Solidity/Solidity/Contracts/Projects/twitter_modifiers.sol\":1654:1656  _i */\n      dup3\n        /* \"Solidity/Solidity/Contracts/Projects/twitter_modifiers.sol\":1638:1657  tweets[_author][_i] */\n      dup2\n      sload\n      dup2\n      lt\n      tag_55\n      jumpi\n      tag_56\n      tag_57\n      jump\t// in\n    tag_56:\n    tag_55:\n      swap1\n      0x00\n      mstore\n      keccak256(0x00, 0x20)\n      swap1\n      0x05\n      mul\n      add\n        /* \"Solidity/Solidity/Contracts/Projects/twitter_modifiers.sol\":1631:1657  return tweets[_author][_i] */\n      mload(0x40)\n      dup1\n      0xa0\n      add\n      0x40\n      mstore\n      swap1\n      dup2\n      0x00\n      dup3\n      add\n      sload\n      dup2\n      mstore\n      0x20\n      add\n      0x01\n      dup3\n      add\n      0x00\n      swap1\n      sload\n      swap1\n      0x0100\n      exp\n      swap1\n      div\n      0xffffffffffffffffffffffffffffffffffffffff\n      and\n      0xffffffffffffffffffffffffffffffffffffffff\n      and\n      0xffffffffffffffffffffffffffffffffffffffff\n      and\n      dup2\n      mstore\n      0x20\n      add\n      0x02\n      dup3\n      add\n      dup1\n      sload\n      tag_59\n      swap1\n      tag_47\n      jump\t// in\n    tag_59:\n      dup1\n      0x1f\n      add\n      0x20\n      dup1\n      swap2\n      div\n      mul\n      0x20\n      add\n      mload(0x40)\n      swap1\n      dup2\n      add\n      0x40\n      mstore\n      dup1\n      swap3\n      swap2\n      swap1\n      dup2\n      dup2\n      mstore\n      0x20\n      add\n      dup3\n      dup1\n      sload\n      tag_60\n      swap1\n      tag_47\n      jump\t// in\n    tag_60:\n      dup1\n      iszero\n      tag_61\n      jumpi\n      dup1\n      0x1f\n      lt\n      tag_62\n      jumpi\n      0x0100\n      dup1\n      dup4\n      sload\n      div\n      mul\n      dup4\n      mstore\n      swap2\n      0x20\n      add\n      swap2\n      jump(tag_61)\n    tag_62:\n      dup3\n      add\n      swap2\n      swap1\n      0x00\n      mstore\n      keccak256(0x00, 0x20)\n      swap1\n    tag_63:\n      dup2\n      sload\n      dup2\n      mstore\n      swap1\n      0x01\n      add\n      swap1\n      0x20\n      add\n      dup1\n      dup4\n      gt\n      tag_63\n      jumpi\n      dup3\n      swap1\n      sub\n      0x1f\n      and\n      dup3\n      add\n      swap2\n    tag_61:\n      pop\n      pop\n      pop\n      pop\n      pop\n      dup2\n      mstore\n      0x20\n      add\n      0x03\n      dup3\n      add\n      sload\n      dup2\n      mstore\n      0x20\n      add\n      0x04\n      dup3\n      add\n      sload\n      dup2\n      mstore\n      pop\n      pop\n      swap1\n      pop\n        /* \"Solidity/Solidity/Contracts/Projects/twitter_modifiers.sol\":1537:1665  function singleTweet(address _author, uint _i) external view returns (Tweet memory){... */\n      swap3\n      swap2\n      pop\n      pop\n      jump\t// out\n        /* \"Solidity/Solidity/Contracts/Projects/twitter_modifiers.sol\":1220:1338  function changeTweetLength(uint16 newTweetLength) public onlyOwner{... */\n    tag_25:\n        /* \"Solidity/Solidity/Contracts/Projects/twitter_modifiers.sol\":585:590  owner */\n      0x02\n      0x00\n      swap1\n      sload\n      swap1\n      0x0100\n      exp\n      swap1\n      div\n      0xffffffffffffffffffffffffffffffffffffffff\n      and\n        /* \"Solidity/Solidity/Contracts/Projects/twitter_modifiers.sol\":571:590  msg.sender == owner */\n      0xffffffffffffffffffffffffffffffffffffffff\n      and\n        /* \"Solidity/Solidity/Contracts/Projects/twitter_modifiers.sol\":571:581  msg.sender */\n      caller\n        /* \"Solidity/Solidity/Contracts/Projects/twitter_modifiers.sol\":571:590  msg.sender == owner */\n      0xffffffffffffffffffffffffffffffffffffffff\n      and\n      eq\n        /* \"Solidity/Solidity/Contracts/Projects/twitter_modifiers.sol\":563:616  require(msg.sender == owner, \"YOU ARE NOT THE OWNER\") */\n      tag_65\n      jumpi\n      mload(0x40)\n      0x08c379a000000000000000000000000000000000000000000000000000000000\n      dup2\n      mstore\n      0x04\n      add\n      tag_66\n      swap1\n      tag_67\n      jump\t// in\n    tag_66:\n      mload(0x40)\n      dup1\n      swap2\n      sub\n      swap1\n      revert\n    tag_65:\n        /* \"Solidity/Solidity/Contracts/Projects/twitter_modifiers.sol\":1316:1330  newTweetLength */\n      dup1\n        /* \"Solidity/Solidity/Contracts/Projects/twitter_modifiers.sol\":1297:1313  MAX_TWEET_LENGTH */\n      0x00\n      dup1\n        /* \"Solidity/Solidity/Contracts/Projects/twitter_modifiers.sol\":1297:1330  MAX_TWEET_LENGTH = newTweetLength */\n      0x0100\n      exp\n      dup2\n      sload\n      dup2\n      0xffff\n      mul\n      not\n      and\n      swap1\n      dup4\n      0xffff\n      and\n      mul\n      or\n      swap1\n      sstore\n      pop\n        /* \"Solidity/Solidity/Contracts/Projects/twitter_modifiers.sol\":1220:1338  function changeTweetLength(uint16 newTweetLength) public onlyOwner{... */\n      pop\n      jump\t// out\n        /* \"Solidity/Solidity/Contracts/Projects/twitter_modifiers.sol\":94:128  uint16 public MAX_TWEET_LENGTH = 5 */\n    tag_27:\n      0x00\n      dup1\n      sload\n      swap1\n      0x0100\n      exp\n      swap1\n      div\n      0xffff\n      and\n      dup2\n      jump\t// out\n        /* \"Solidity/Solidity/Contracts/Projects/twitter_modifiers.sol\":644:1212  function createTweet(string memory tweetContent)public {... */\n    tag_33:\n        /* \"Solidity/Solidity/Contracts/Projects/twitter_modifiers.sol\":830:846  MAX_TWEET_LENGTH */\n      0x00\n      dup1\n      sload\n      swap1\n      0x0100\n      exp\n      swap1\n      div\n      0xffff\n      and\n        /* \"Solidity/Solidity/Contracts/Projects/twitter_modifiers.sol\":800:846  bytes(tweetContent).length <= MAX_TWEET_LENGTH */\n      0xffff\n      and\n        /* \"Solidity/Solidity/Contracts/Projects/twitter_modifiers.sol\":806:818  tweetContent */\n      dup2\n        /* \"Solidity/Solidity/Contracts/Projects/twitter_modifiers.sol\":800:826  bytes(tweetContent).length */\n      mload\n        /* \"Solidity/Solidity/Contracts/Projects/twitter_modifiers.sol\":800:846  bytes(tweetContent).length <= MAX_TWEET_LENGTH */\n      gt\n      iszero\n        /* \"Solidity/Solidity/Contracts/Projects/twitter_modifiers.sol\":791:883  require((bytes(tweetContent).length <= MAX_TWEET_LENGTH), \"TWEET TOO LOOOONG BROOOOOOO!!!!\") */\n      tag_70\n      jumpi\n      mload(0x40)\n      0x08c379a000000000000000000000000000000000000000000000000000000000\n      dup2\n      mstore\n      0x04\n      add\n      tag_71\n      swap1\n      tag_72\n      jump\t// in\n    tag_71:\n      mload(0x40)\n      dup1\n      swap2\n      sub\n      swap1\n      revert\n    tag_70:\n        /* \"Solidity/Solidity/Contracts/Projects/twitter_modifiers.sol\":937:959  Tweet memory newTweets */\n      0x00\n        /* \"Solidity/Solidity/Contracts/Projects/twitter_modifiers.sol\":962:1157  Tweet({... */\n      mload(0x40)\n      dup1\n      0xa0\n      add\n      0x40\n      mstore\n      dup1\n        /* \"Solidity/Solidity/Contracts/Projects/twitter_modifiers.sol\":987:993  tweets */\n      0x01\n        /* \"Solidity/Solidity/Contracts/Projects/twitter_modifiers.sol\":987:1005  tweets[msg.sender] */\n      0x00\n        /* \"Solidity/Solidity/Contracts/Projects/twitter_modifiers.sol\":994:1004  msg.sender */\n      caller\n        /* \"Solidity/Solidity/Contracts/Projects/twitter_modifiers.sol\":987:1005  tweets[msg.sender] */\n      0xffffffffffffffffffffffffffffffffffffffff\n      and\n      0xffffffffffffffffffffffffffffffffffffffff\n      and\n      dup2\n      mstore\n      0x20\n      add\n      swap1\n      dup2\n      mstore\n      0x20\n      add\n      0x00\n      keccak256\n        /* \"Solidity/Solidity/Contracts/Projects/twitter_modifiers.sol\":987:1012  tweets[msg.sender].length */\n      dup1\n      sload\n      swap1\n      pop\n        /* \"Solidity/Solidity/Contracts/Projects/twitter_modifiers.sol\":962:1157  Tweet({... */\n      dup2\n      mstore\n      0x20\n      add\n        /* \"Solidity/Solidity/Contracts/Projects/twitter_modifiers.sol\":1035:1045  msg.sender */\n      caller\n        /* \"Solidity/Solidity/Contracts/Projects/twitter_modifiers.sol\":962:1157  Tweet({... */\n      0xffffffffffffffffffffffffffffffffffffffff\n      and\n      dup2\n      mstore\n      0x20\n      add\n        /* \"Solidity/Solidity/Contracts/Projects/twitter_modifiers.sol\":1069:1081  tweetContent */\n      dup4\n        /* \"Solidity/Solidity/Contracts/Projects/twitter_modifiers.sol\":962:1157  Tweet({... */\n      dup2\n      mstore\n      0x20\n      add\n        /* \"Solidity/Solidity/Contracts/Projects/twitter_modifiers.sol\":1107:1122  block.timestamp */\n      timestamp\n        /* \"Solidity/Solidity/Contracts/Projects/twitter_modifiers.sol\":962:1157  Tweet({... */\n      dup2\n      mstore\n      0x20\n      add\n        /* \"Solidity/Solidity/Contracts/Projects/twitter_modifiers.sol\":1144:1145  0 */\n      0x00\n        /* \"Solidity/Solidity/Contracts/Projects/twitter_modifiers.sol\":962:1157  Tweet({... */\n      dup2\n      mstore\n      pop\n        /* \"Solidity/Solidity/Contracts/Projects/twitter_modifiers.sol\":937:1157  Tweet memory newTweets = Tweet({... */\n      swap1\n      pop\n        /* \"Solidity/Solidity/Contracts/Projects/twitter_modifiers.sol\":1170:1176  tweets */\n      0x01\n        /* \"Solidity/Solidity/Contracts/Projects/twitter_modifiers.sol\":1170:1188  tweets[msg.sender] */\n      0x00\n        /* \"Solidity/Solidity/Contracts/Projects/twitter_modifiers.sol\":1177:1187  msg.sender */\n      caller\n        /* \"Solidity/Solidity/Contracts/Projects/twitter_modifiers.sol\":1170:1188  tweets[msg.sender] */\n      0xffffffffffffffffffffffffffffffffffffffff\n      and\n      0xffffffffffffffffffffffffffffffffffffffff\n      and\n      dup2\n      mstore\n      0x20\n      add\n      swap1\n      dup2\n      mstore\n      0x20\n      add\n      0x00\n      keccak256\n        /* \"Solidity/Solidity/Contracts/Projects/twitter_modifiers.sol\":1194:1203  newTweets */\n      dup2\n        /* \"Solidity/Solidity/Contracts/Projects/twitter_modifiers.sol\":1170:1204  tweets[msg.sender].push(newTweets) */\n      swap1\n      dup1\n      0x01\n      dup2\n      sload\n      add\n      dup1\n      dup3\n      sstore\n      dup1\n      swap2\n      pop\n      pop\n      0x01\n      swap1\n      sub\n      swap1\n      0x00\n      mstore\n      keccak256(0x00, 0x20)\n      swap1\n      0x05\n      mul\n      add\n      0x00\n      swap1\n      swap2\n      swap1\n      swap2\n      swap1\n      swap2\n      pop\n      0x00\n      dup3\n      add\n      mload\n      dup2\n      0x00\n      add\n      sstore\n      0x20\n      dup3\n      add\n      mload\n      dup2\n      0x01\n      add\n      exp(0x0100, 0x00)\n      dup2\n      sload\n      dup2\n      0xffffffffffffffffffffffffffffffffffffffff\n      mul\n      not\n      and\n      swap1\n      dup4\n      0xffffffffffffffffffffffffffffffffffffffff\n      and\n      mul\n      or\n      swap1\n      sstore\n      pop\n      0x40\n      dup3\n      add\n      mload\n      dup2\n      0x02\n      add\n      swap1\n      dup2\n      tag_74\n      swap2\n      swap1\n      tag_75\n      jump\t// in\n    tag_74:\n      pop\n      0x60\n      dup3\n      add\n      mload\n      dup2\n      0x03\n      add\n      sstore\n      0x80\n      dup3\n      add\n      mload\n      dup2\n      0x04\n      add\n      sstore\n      pop\n      pop\n        /* \"Solidity/Solidity/Contracts/Projects/twitter_modifiers.sol\":699:1212  {... */\n      pop\n        /* \"Solidity/Solidity/Contracts/Projects/twitter_modifiers.sol\":644:1212  function createTweet(string memory tweetContent)public {... */\n      pop\n      jump\t// out\n        /* \"Solidity/Solidity/Contracts/Projects/twitter_modifiers.sol\":445:465  address public owner */\n    tag_35:\n      0x02\n      0x00\n      swap1\n      sload\n      swap1\n      0x0100\n      exp\n      swap1\n      div\n      0xffffffffffffffffffffffffffffffffffffffff\n      and\n      dup2\n      jump\t// out\n        /* \"Solidity/Solidity/Contracts/Projects/twitter_modifiers.sol\":1380:1495  function getTweets(address _author) external view returns (Tweet[] memory){... */\n    tag_41:\n        /* \"Solidity/Solidity/Contracts/Projects/twitter_modifiers.sol\":1439:1453  Tweet[] memory */\n      0x60\n        /* \"Solidity/Solidity/Contracts/Projects/twitter_modifiers.sol\":1472:1478  tweets */\n      0x01\n        /* \"Solidity/Solidity/Contracts/Projects/twitter_modifiers.sol\":1472:1487  tweets[_author] */\n      0x00\n        /* \"Solidity/Solidity/Contracts/Projects/twitter_modifiers.sol\":1479:1486  _author */\n      dup4\n        /* \"Solidity/Solidity/Contracts/Projects/twitter_modifiers.sol\":1472:1487  tweets[_author] */\n      0xffffffffffffffffffffffffffffffffffffffff\n      and\n      0xffffffffffffffffffffffffffffffffffffffff\n      and\n      dup2\n      mstore\n      0x20\n      add\n      swap1\n      dup2\n      mstore\n      0x20\n      add\n      0x00\n      keccak256\n        /* \"Solidity/Solidity/Contracts/Projects/twitter_modifiers.sol\":1465:1487  return tweets[_author] */\n      dup1\n      sload\n      dup1\n      0x20\n      mul\n      0x20\n      add\n      mload(0x40)\n      swap1\n      dup2\n      add\n      0x40\n      mstore\n      dup1\n      swap3\n      swap2\n      swap1\n      dup2\n      dup2\n      mstore\n      0x20\n      add\n      0x00\n      swap1\n    tag_77:\n      dup3\n      dup3\n      lt\n      iszero\n      tag_78\n      jumpi\n      dup4\n      dup3\n      swap1\n      0x00\n      mstore\n      keccak256(0x00, 0x20)\n      swap1\n      0x05\n      mul\n      add\n      mload(0x40)\n      dup1\n      0xa0\n      add\n      0x40\n      mstore\n      swap1\n      dup2\n      0x00\n      dup3\n      add\n      sload\n      dup2\n      mstore\n      0x20\n      add\n      0x01\n      dup3\n      add\n      0x00\n      swap1\n      sload\n      swap1\n      0x0100\n      exp\n      swap1\n      div\n      0xffffffffffffffffffffffffffffffffffffffff\n      and\n      0xffffffffffffffffffffffffffffffffffffffff\n      and\n      0xffffffffffffffffffffffffffffffffffffffff\n      and\n      dup2\n      mstore\n      0x20\n      add\n      0x02\n      dup3\n      add\n      dup1\n      sload\n      tag_80\n      swap1\n      tag_47\n      jump\t// in\n    tag_80:\n      dup1\n      0x1f\n      add\n      0x20\n      dup1\n      swap2\n      div\n      mul\n      0x20\n      add\n      mload(0x40)\n      swap1\n      dup2\n      add\n      0x40\n      mstore\n      dup1\n      swap3\n      swap2\n      swap1\n      dup2\n      dup2\n      mstore\n      0x20\n      add\n      dup3\n      dup1\n      sload\n      tag_81\n      swap1\n      tag_47\n      jump\t// in\n    tag_81:\n      dup1\n      iszero\n      tag_82\n      jumpi\n      dup1\n      0x1f\n      lt\n      tag_83\n      jumpi\n      0x0100\n      dup1\n      dup4\n      sload\n      div\n      mul\n      dup4\n      mstore\n      swap2\n      0x20\n      add\n      swap2\n      jump(tag_82)\n    tag_83:\n      dup3\n      add\n      swap2\n      swap1\n      0x00\n      mstore\n      keccak256(0x00, 0x20)\n      swap1\n    tag_84:\n      dup2\n      sload\n      dup2\n      mstore\n      swap1\n      0x01\n      add\n      swap1\n      0x20\n      add\n      dup1\n      dup4\n      gt\n      tag_84\n      jumpi\n      dup3\n      swap1\n      sub\n      0x1f\n      and\n      dup3\n      add\n      swap2\n    tag_82:\n      pop\n      pop\n      pop\n      pop\n      pop\n      dup2\n      mstore\n      0x20\n      add\n      0x03\n      dup3\n      add\n      sload\n      dup2\n      mstore\n      0x20\n      add\n      0x04\n      dup3\n      add\n      sload\n      dup2\n      mstore\n      pop\n      pop\n      dup2\n      mstore\n      0x20\n      add\n      swap1\n      0x01\n      add\n      swap1\n      jump(tag_77)\n    tag_78:\n      pop\n      pop\n      pop\n      pop\n      swap1\n      pop\n        /* \"Solidity/Solidity/Contracts/Projects/twitter_modifiers.sol\":1380:1495  function getTweets(address _author) external view returns (Tweet[] memory){... */\n      swap2\n      swap1\n      pop\n      jump\t// out\n    tag_53:\n      mload(0x40)\n      dup1\n      0xa0\n      add\n      0x40\n      mstore\n      dup1\n      0x00\n      dup2\n      mstore\n      0x20\n      add\n      and(0xffffffffffffffffffffffffffffffffffffffff, 0x00)\n      dup2\n      mstore\n      0x20\n      add\n      0x60\n      dup2\n      mstore\n      0x20\n      add\n      0x00\n      dup2\n      mstore\n      0x20\n      add\n      0x00\n      dup2\n      mstore\n      pop\n      swap1\n      jump\t// out\n        /* \"#utility.yul\":7:82   */\n    tag_85:\n        /* \"#utility.yul\":40:46   */\n      0x00\n        /* \"#utility.yul\":73:75   */\n      0x40\n        /* \"#utility.yul\":67:76   */\n      mload\n        /* \"#utility.yul\":57:76   */\n      swap1\n      pop\n        /* \"#utility.yul\":7:82   */\n      swap1\n      jump\t// out\n        /* \"#utility.yul\":88:205   */\n    tag_86:\n        /* \"#utility.yul\":197:198   */\n      0x00\n        /* \"#utility.yul\":194:195   */\n      dup1\n        /* \"#utility.yul\":187:199   */\n      revert\n        /* \"#utility.yul\":211:328   */\n    tag_87:\n        /* \"#utility.yul\":320:321   */\n      0x00\n        /* \"#utility.yul\":317:318   */\n      dup1\n        /* \"#utility.yul\":310:322   */\n      revert\n        /* \"#utility.yul\":334:460   */\n    tag_88:\n        /* \"#utility.yul\":371:378   */\n      0x00\n        /* \"#utility.yul\":411:453   */\n      0xffffffffffffffffffffffffffffffffffffffff\n        /* \"#utility.yul\":404:409   */\n      dup3\n        /* \"#utility.yul\":400:454   */\n      and\n        /* \"#utility.yul\":389:454   */\n      swap1\n      pop\n        /* \"#utility.yul\":334:460   */\n      swap2\n      swap1\n      pop\n      jump\t// out\n        /* \"#utility.yul\":466:562   */\n    tag_89:\n        /* \"#utility.yul\":503:510   */\n      0x00\n        /* \"#utility.yul\":532:556   */\n      tag_153\n        /* \"#utility.yul\":550:555   */\n      dup3\n        /* \"#utility.yul\":532:556   */\n      tag_88\n      jump\t// in\n    tag_153:\n        /* \"#utility.yul\":521:556   */\n      swap1\n      pop\n        /* \"#utility.yul\":466:562   */\n      swap2\n      swap1\n      pop\n      jump\t// out\n        /* \"#utility.yul\":568:690   */\n    tag_90:\n        /* \"#utility.yul\":641:665   */\n      tag_155\n        /* \"#utility.yul\":659:664   */\n      dup2\n        /* \"#utility.yul\":641:665   */\n      tag_89\n      jump\t// in\n    tag_155:\n        /* \"#utility.yul\":634:639   */\n      dup2\n        /* \"#utility.yul\":631:666   */\n      eq\n        /* \"#utility.yul\":621:684   */\n      tag_156\n      jumpi\n        /* \"#utility.yul\":680:681   */\n      0x00\n        /* \"#utility.yul\":677:678   */\n      dup1\n        /* \"#utility.yul\":670:682   */\n      revert\n        /* \"#utility.yul\":621:684   */\n    tag_156:\n        /* \"#utility.yul\":568:690   */\n      pop\n      jump\t// out\n        /* \"#utility.yul\":696:835   */\n    tag_91:\n        /* \"#utility.yul\":742:747   */\n      0x00\n        /* \"#utility.yul\":780:786   */\n      dup2\n        /* \"#utility.yul\":767:787   */\n      calldataload\n        /* \"#utility.yul\":758:787   */\n      swap1\n      pop\n        /* \"#utility.yul\":796:829   */\n      tag_158\n        /* \"#utility.yul\":823:828   */\n      dup2\n        /* \"#utility.yul\":796:829   */\n      tag_90\n      jump\t// in\n    tag_158:\n        /* \"#utility.yul\":696:835   */\n      swap3\n      swap2\n      pop\n      pop\n      jump\t// out\n        /* \"#utility.yul\":841:918   */\n    tag_92:\n        /* \"#utility.yul\":878:885   */\n      0x00\n        /* \"#utility.yul\":907:912   */\n      dup2\n        /* \"#utility.yul\":896:912   */\n      swap1\n      pop\n        /* \"#utility.yul\":841:918   */\n      swap2\n      swap1\n      pop\n      jump\t// out\n        /* \"#utility.yul\":924:1046   */\n    tag_93:\n        /* \"#utility.yul\":997:1021   */\n      tag_161\n        /* \"#utility.yul\":1015:1020   */\n      dup2\n        /* \"#utility.yul\":997:1021   */\n      tag_92\n      jump\t// in\n    tag_161:\n        /* \"#utility.yul\":990:995   */\n      dup2\n        /* \"#utility.yul\":987:1022   */\n      eq\n        /* \"#utility.yul\":977:1040   */\n      tag_162\n      jumpi\n        /* \"#utility.yul\":1036:1037   */\n      0x00\n        /* \"#utility.yul\":1033:1034   */\n      dup1\n        /* \"#utility.yul\":1026:1038   */\n      revert\n        /* \"#utility.yul\":977:1040   */\n    tag_162:\n        /* \"#utility.yul\":924:1046   */\n      pop\n      jump\t// out\n        /* \"#utility.yul\":1052:1191   */\n    tag_94:\n        /* \"#utility.yul\":1098:1103   */\n      0x00\n        /* \"#utility.yul\":1136:1142   */\n      dup2\n        /* \"#utility.yul\":1123:1143   */\n      calldataload\n        /* \"#utility.yul\":1114:1143   */\n      swap1\n      pop\n        /* \"#utility.yul\":1152:1185   */\n      tag_164\n        /* \"#utility.yul\":1179:1184   */\n      dup2\n        /* \"#utility.yul\":1152:1185   */\n      tag_93\n      jump\t// in\n    tag_164:\n        /* \"#utility.yul\":1052:1191   */\n      swap3\n      swap2\n      pop\n      pop\n      jump\t// out\n        /* \"#utility.yul\":1197:1671   */\n    tag_13:\n        /* \"#utility.yul\":1265:1271   */\n      0x00\n        /* \"#utility.yul\":1273:1279   */\n      dup1\n        /* \"#utility.yul\":1322:1324   */\n      0x40\n        /* \"#utility.yul\":1310:1319   */\n      dup4\n        /* \"#utility.yul\":1301:1308   */\n      dup6\n        /* \"#utility.yul\":1297:1320   */\n      sub\n        /* \"#utility.yul\":1293:1325   */\n      slt\n        /* \"#utility.yul\":1290:1409   */\n      iszero\n      tag_166\n      jumpi\n        /* \"#utility.yul\":1328:1407   */\n      tag_167\n      tag_86\n      jump\t// in\n    tag_167:\n        /* \"#utility.yul\":1290:1409   */\n    tag_166:\n        /* \"#utility.yul\":1448:1449   */\n      0x00\n        /* \"#utility.yul\":1473:1526   */\n      tag_168\n        /* \"#utility.yul\":1518:1525   */\n      dup6\n        /* \"#utility.yul\":1509:1515   */\n      dup3\n        /* \"#utility.yul\":1498:1507   */\n      dup7\n        /* \"#utility.yul\":1494:1516   */\n      add\n        /* \"#utility.yul\":1473:1526   */\n      tag_91\n      jump\t// in\n    tag_168:\n        /* \"#utility.yul\":1463:1526   */\n      swap3\n      pop\n        /* \"#utility.yul\":1419:1536   */\n      pop\n        /* \"#utility.yul\":1575:1577   */\n      0x20\n        /* \"#utility.yul\":1601:1654   */\n      tag_169\n        /* \"#utility.yul\":1646:1653   */\n      dup6\n        /* \"#utility.yul\":1637:1643   */\n      dup3\n        /* \"#utility.yul\":1626:1635   */\n      dup7\n        /* \"#utility.yul\":1622:1644   */\n      add\n        /* \"#utility.yul\":1601:1654   */\n      tag_94\n      jump\t// in\n    tag_169:\n        /* \"#utility.yul\":1591:1654   */\n      swap2\n      pop\n        /* \"#utility.yul\":1546:1664   */\n      pop\n        /* \"#utility.yul\":1197:1671   */\n      swap3\n      pop\n      swap3\n      swap1\n      pop\n      jump\t// out\n        /* \"#utility.yul\":1677:1795   */\n    tag_95:\n        /* \"#utility.yul\":1764:1788   */\n      tag_171\n        /* \"#utility.yul\":1782:1787   */\n      dup2\n        /* \"#utility.yul\":1764:1788   */\n      tag_92\n      jump\t// in\n    tag_171:\n        /* \"#utility.yul\":1759:1762   */\n      dup3\n        /* \"#utility.yul\":1752:1789   */\n      mstore\n        /* \"#utility.yul\":1677:1795   */\n      pop\n      pop\n      jump\t// out\n        /* \"#utility.yul\":1801:1919   */\n    tag_96:\n        /* \"#utility.yul\":1888:1912   */\n      tag_173\n        /* \"#utility.yul\":1906:1911   */\n      dup2\n        /* \"#utility.yul\":1888:1912   */\n      tag_89\n      jump\t// in\n    tag_173:\n        /* \"#utility.yul\":1883:1886   */\n      dup3\n        /* \"#utility.yul\":1876:1913   */\n      mstore\n        /* \"#utility.yul\":1801:1919   */\n      pop\n      pop\n      jump\t// out\n        /* \"#utility.yul\":1925:2024   */\n    tag_97:\n        /* \"#utility.yul\":1977:1983   */\n      0x00\n        /* \"#utility.yul\":2011:2016   */\n      dup2\n        /* \"#utility.yul\":2005:2017   */\n      mload\n        /* \"#utility.yul\":1995:2017   */\n      swap1\n      pop\n        /* \"#utility.yul\":1925:2024   */\n      swap2\n      swap1\n      pop\n      jump\t// out\n        /* \"#utility.yul\":2030:2199   */\n    tag_98:\n        /* \"#utility.yul\":2114:2125   */\n      0x00\n        /* \"#utility.yul\":2148:2154   */\n      dup3\n        /* \"#utility.yul\":2143:2146   */\n      dup3\n        /* \"#utility.yul\":2136:2155   */\n      mstore\n        /* \"#utility.yul\":2188:2192   */\n      0x20\n        /* \"#utility.yul\":2183:2186   */\n      dup3\n        /* \"#utility.yul\":2179:2193   */\n      add\n        /* \"#utility.yul\":2164:2193   */\n      swap1\n      pop\n        /* \"#utility.yul\":2030:2199   */\n      swap3\n      swap2\n      pop\n      pop\n      jump\t// out\n        /* \"#utility.yul\":2205:2344   */\n    tag_99:\n        /* \"#utility.yul\":2294:2300   */\n      dup3\n        /* \"#utility.yul\":2289:2292   */\n      dup2\n        /* \"#utility.yul\":2284:2287   */\n      dup4\n        /* \"#utility.yul\":2278:2301   */\n      mcopy\n        /* \"#utility.yul\":2335:2336   */\n      0x00\n        /* \"#utility.yul\":2326:2332   */\n      dup4\n        /* \"#utility.yul\":2321:2324   */\n      dup4\n        /* \"#utility.yul\":2317:2333   */\n      add\n        /* \"#utility.yul\":2310:2337   */\n      mstore\n        /* \"#utility.yul\":2205:2344   */\n      pop\n      pop\n      pop\n      jump\t// out\n        /* \"#utility.yul\":2350:2452   */\n    tag_100:\n        /* \"#utility.yul\":2391:2397   */\n      0x00\n        /* \"#utility.yul\":2442:2444   */\n      0x1f\n        /* \"#utility.yul\":2438:2445   */\n      not\n        /* \"#utility.yul\":2433:2435   */\n      0x1f\n        /* \"#utility.yul\":2426:2431   */\n      dup4\n        /* \"#utility.yul\":2422:2436   */\n      add\n        /* \"#utility.yul\":2418:2446   */\n      and\n        /* \"#utility.yul\":2408:2446   */\n      swap1\n      pop\n        /* \"#utility.yul\":2350:2452   */\n      swap2\n      swap1\n      pop\n      jump\t// out\n        /* \"#utility.yul\":2458:2835   */\n    tag_101:\n        /* \"#utility.yul\":2546:2549   */\n      0x00\n        /* \"#utility.yul\":2574:2613   */\n      tag_179\n        /* \"#utility.yul\":2607:2612   */\n      dup3\n        /* \"#utility.yul\":2574:2613   */\n      tag_97\n      jump\t// in\n    tag_179:\n        /* \"#utility.yul\":2629:2700   */\n      tag_180\n        /* \"#utility.yul\":2693:2699   */\n      dup2\n        /* \"#utility.yul\":2688:2691   */\n      dup6\n        /* \"#utility.yul\":2629:2700   */\n      tag_98\n      jump\t// in\n    tag_180:\n        /* \"#utility.yul\":2622:2700   */\n      swap4\n      pop\n        /* \"#utility.yul\":2709:2774   */\n      tag_181\n        /* \"#utility.yul\":2767:2773   */\n      dup2\n        /* \"#utility.yul\":2762:2765   */\n      dup6\n        /* \"#utility.yul\":2755:2759   */\n      0x20\n        /* \"#utility.yul\":2748:2753   */\n      dup7\n        /* \"#utility.yul\":2744:2760   */\n      add\n        /* \"#utility.yul\":2709:2774   */\n      tag_99\n      jump\t// in\n    tag_181:\n        /* \"#utility.yul\":2799:2828   */\n      tag_182\n        /* \"#utility.yul\":2821:2827   */\n      dup2\n        /* \"#utility.yul\":2799:2828   */\n      tag_100\n      jump\t// in\n    tag_182:\n        /* \"#utility.yul\":2794:2797   */\n      dup5\n        /* \"#utility.yul\":2790:2829   */\n      add\n        /* \"#utility.yul\":2783:2829   */\n      swap2\n      pop\n        /* \"#utility.yul\":2550:2835   */\n      pop\n        /* \"#utility.yul\":2458:2835   */\n      swap3\n      swap2\n      pop\n      pop\n      jump\t// out\n        /* \"#utility.yul\":2841:3596   */\n    tag_16:\n        /* \"#utility.yul\":3066:3070   */\n      0x00\n        /* \"#utility.yul\":3104:3107   */\n      0xa0\n        /* \"#utility.yul\":3093:3102   */\n      dup3\n        /* \"#utility.yul\":3089:3108   */\n      add\n        /* \"#utility.yul\":3081:3108   */\n      swap1\n      pop\n        /* \"#utility.yul\":3118:3189   */\n      tag_184\n        /* \"#utility.yul\":3186:3187   */\n      0x00\n        /* \"#utility.yul\":3175:3184   */\n      dup4\n        /* \"#utility.yul\":3171:3188   */\n      add\n        /* \"#utility.yul\":3162:3168   */\n      dup9\n        /* \"#utility.yul\":3118:3189   */\n      tag_95\n      jump\t// in\n    tag_184:\n        /* \"#utility.yul\":3199:3271   */\n      tag_185\n        /* \"#utility.yul\":3267:3269   */\n      0x20\n        /* \"#utility.yul\":3256:3265   */\n      dup4\n        /* \"#utility.yul\":3252:3270   */\n      add\n        /* \"#utility.yul\":3243:3249   */\n      dup8\n        /* \"#utility.yul\":3199:3271   */\n      tag_96\n      jump\t// in\n    tag_185:\n        /* \"#utility.yul\":3318:3327   */\n      dup2\n        /* \"#utility.yul\":3312:3316   */\n      dup2\n        /* \"#utility.yul\":3308:3328   */\n      sub\n        /* \"#utility.yul\":3303:3305   */\n      0x40\n        /* \"#utility.yul\":3292:3301   */\n      dup4\n        /* \"#utility.yul\":3288:3306   */\n      add\n        /* \"#utility.yul\":3281:3329   */\n      mstore\n        /* \"#utility.yul\":3346:3424   */\n      tag_186\n        /* \"#utility.yul\":3419:3423   */\n      dup2\n        /* \"#utility.yul\":3410:3416   */\n      dup7\n        /* \"#utility.yul\":3346:3424   */\n      tag_101\n      jump\t// in\n    tag_186:\n        /* \"#utility.yul\":3338:3424   */\n      swap1\n      pop\n        /* \"#utility.yul\":3434:3506   */\n      tag_187\n        /* \"#utility.yul\":3502:3504   */\n      0x60\n        /* \"#utility.yul\":3491:3500   */\n      dup4\n        /* \"#utility.yul\":3487:3505   */\n      add\n        /* \"#utility.yul\":3478:3484   */\n      dup6\n        /* \"#utility.yul\":3434:3506   */\n      tag_95\n      jump\t// in\n    tag_187:\n        /* \"#utility.yul\":3516:3589   */\n      tag_188\n        /* \"#utility.yul\":3584:3587   */\n      0x80\n        /* \"#utility.yul\":3573:3582   */\n      dup4\n        /* \"#utility.yul\":3569:3588   */\n      add\n        /* \"#utility.yul\":3560:3566   */\n      dup5\n        /* \"#utility.yul\":3516:3589   */\n      tag_95\n      jump\t// in\n    tag_188:\n        /* \"#utility.yul\":2841:3596   */\n      swap7\n      swap6\n      pop\n      pop\n      pop\n      pop\n      pop\n      pop\n      jump\t// out\n        /* \"#utility.yul\":3602:3710   */\n    tag_102:\n        /* \"#utility.yul\":3679:3703   */\n      tag_190\n        /* \"#utility.yul\":3697:3702   */\n      dup2\n        /* \"#utility.yul\":3679:3703   */\n      tag_92\n      jump\t// in\n    tag_190:\n        /* \"#utility.yul\":3674:3677   */\n      dup3\n        /* \"#utility.yul\":3667:3704   */\n      mstore\n        /* \"#utility.yul\":3602:3710   */\n      pop\n      pop\n      jump\t// out\n        /* \"#utility.yul\":3716:3824   */\n    tag_103:\n        /* \"#utility.yul\":3793:3817   */\n      tag_192\n        /* \"#utility.yul\":3811:3816   */\n      dup2\n        /* \"#utility.yul\":3793:3817   */\n      tag_89\n      jump\t// in\n    tag_192:\n        /* \"#utility.yul\":3788:3791   */\n      dup3\n        /* \"#utility.yul\":3781:3818   */\n      mstore\n        /* \"#utility.yul\":3716:3824   */\n      pop\n      pop\n      jump\t// out\n        /* \"#utility.yul\":3830:3989   */\n    tag_104:\n        /* \"#utility.yul\":3904:3915   */\n      0x00\n        /* \"#utility.yul\":3938:3944   */\n      dup3\n        /* \"#utility.yul\":3933:3936   */\n      dup3\n        /* \"#utility.yul\":3926:3945   */\n      mstore\n        /* \"#utility.yul\":3978:3982   */\n      0x20\n        /* \"#utility.yul\":3973:3976   */\n      dup3\n        /* \"#utility.yul\":3969:3983   */\n      add\n        /* \"#utility.yul\":3954:3983   */\n      swap1\n      pop\n        /* \"#utility.yul\":3830:3989   */\n      swap3\n      swap2\n      pop\n      pop\n      jump\t// out\n        /* \"#utility.yul\":3995:4352   */\n    tag_105:\n        /* \"#utility.yul\":4073:4076   */\n      0x00\n        /* \"#utility.yul\":4101:4140   */\n      tag_195\n        /* \"#utility.yul\":4134:4139   */\n      dup3\n        /* \"#utility.yul\":4101:4140   */\n      tag_97\n      jump\t// in\n    tag_195:\n        /* \"#utility.yul\":4156:4217   */\n      tag_196\n        /* \"#utility.yul\":4210:4216   */\n      dup2\n        /* \"#utility.yul\":4205:4208   */\n      dup6\n        /* \"#utility.yul\":4156:4217   */\n      tag_104\n      jump\t// in\n    tag_196:\n        /* \"#utility.yul\":4149:4217   */\n      swap4\n      pop\n        /* \"#utility.yul\":4226:4291   */\n      tag_197\n        /* \"#utility.yul\":4284:4290   */\n      dup2\n        /* \"#utility.yul\":4279:4282   */\n      dup6\n        /* \"#utility.yul\":4272:4276   */\n      0x20\n        /* \"#utility.yul\":4265:4270   */\n      dup7\n        /* \"#utility.yul\":4261:4277   */\n      add\n        /* \"#utility.yul\":4226:4291   */\n      tag_99\n      jump\t// in\n    tag_197:\n        /* \"#utility.yul\":4316:4345   */\n      tag_198\n        /* \"#utility.yul\":4338:4344   */\n      dup2\n        /* \"#utility.yul\":4316:4345   */\n      tag_100\n      jump\t// in\n    tag_198:\n        /* \"#utility.yul\":4311:4314   */\n      dup5\n        /* \"#utility.yul\":4307:4346   */\n      add\n        /* \"#utility.yul\":4300:4346   */\n      swap2\n      pop\n        /* \"#utility.yul\":4077:4352   */\n      pop\n        /* \"#utility.yul\":3995:4352   */\n      swap3\n      swap2\n      pop\n      pop\n      jump\t// out\n        /* \"#utility.yul\":4428:5557   */\n    tag_106:\n        /* \"#utility.yul\":4539:4542   */\n      0x00\n        /* \"#utility.yul\":4575:4579   */\n      0xa0\n        /* \"#utility.yul\":4570:4573   */\n      dup4\n        /* \"#utility.yul\":4566:4580   */\n      add\n        /* \"#utility.yul\":4660:4664   */\n      0x00\n        /* \"#utility.yul\":4653:4658   */\n      dup4\n        /* \"#utility.yul\":4649:4665   */\n      add\n        /* \"#utility.yul\":4643:4666   */\n      mload\n        /* \"#utility.yul\":4679:4742   */\n      tag_200\n        /* \"#utility.yul\":4736:4740   */\n      0x00\n        /* \"#utility.yul\":4731:4734   */\n      dup7\n        /* \"#utility.yul\":4727:4741   */\n      add\n        /* \"#utility.yul\":4713:4725   */\n      dup3\n        /* \"#utility.yul\":4679:4742   */\n      tag_102\n      jump\t// in\n    tag_200:\n        /* \"#utility.yul\":4590:4752   */\n      pop\n        /* \"#utility.yul\":4836:4840   */\n      0x20\n        /* \"#utility.yul\":4829:4834   */\n      dup4\n        /* \"#utility.yul\":4825:4841   */\n      add\n        /* \"#utility.yul\":4819:4842   */\n      mload\n        /* \"#utility.yul\":4855:4918   */\n      tag_201\n        /* \"#utility.yul\":4912:4916   */\n      0x20\n        /* \"#utility.yul\":4907:4910   */\n      dup7\n        /* \"#utility.yul\":4903:4917   */\n      add\n        /* \"#utility.yul\":4889:4901   */\n      dup3\n        /* \"#utility.yul\":4855:4918   */\n      tag_103\n      jump\t// in\n    tag_201:\n        /* \"#utility.yul\":4762:4928   */\n      pop\n        /* \"#utility.yul\":5013:5017   */\n      0x40\n        /* \"#utility.yul\":5006:5011   */\n      dup4\n        /* \"#utility.yul\":5002:5018   */\n      add\n        /* \"#utility.yul\":4996:5019   */\n      mload\n        /* \"#utility.yul\":5066:5069   */\n      dup5\n        /* \"#utility.yul\":5060:5064   */\n      dup3\n        /* \"#utility.yul\":5056:5070   */\n      sub\n        /* \"#utility.yul\":5049:5053   */\n      0x40\n        /* \"#utility.yul\":5044:5047   */\n      dup7\n        /* \"#utility.yul\":5040:5054   */\n      add\n        /* \"#utility.yul\":5033:5071   */\n      mstore\n        /* \"#utility.yul\":5092:5165   */\n      tag_202\n        /* \"#utility.yul\":5160:5164   */\n      dup3\n        /* \"#utility.yul\":5146:5158   */\n      dup3\n        /* \"#utility.yul\":5092:5165   */\n      tag_105\n      jump\t// in\n    tag_202:\n        /* \"#utility.yul\":5084:5165   */\n      swap2\n      pop\n        /* \"#utility.yul\":4938:5176   */\n      pop\n        /* \"#utility.yul\":5263:5267   */\n      0x60\n        /* \"#utility.yul\":5256:5261   */\n      dup4\n        /* \"#utility.yul\":5252:5268   */\n      add\n        /* \"#utility.yul\":5246:5269   */\n      mload\n        /* \"#utility.yul\":5282:5345   */\n      tag_203\n        /* \"#utility.yul\":5339:5343   */\n      0x60\n        /* \"#utility.yul\":5334:5337   */\n      dup7\n        /* \"#utility.yul\":5330:5344   */\n      add\n        /* \"#utility.yul\":5316:5328   */\n      dup3\n        /* \"#utility.yul\":5282:5345   */\n      tag_102\n      jump\t// in\n    tag_203:\n        /* \"#utility.yul\":5186:5355   */\n      pop\n        /* \"#utility.yul\":5438:5442   */\n      0x80\n        /* \"#utility.yul\":5431:5436   */\n      dup4\n        /* \"#utility.yul\":5427:5443   */\n      add\n        /* \"#utility.yul\":5421:5444   */\n      mload\n        /* \"#utility.yul\":5457:5520   */\n      tag_204\n        /* \"#utility.yul\":5514:5518   */\n      0x80\n        /* \"#utility.yul\":5509:5512   */\n      dup7\n        /* \"#utility.yul\":5505:5519   */\n      add\n        /* \"#utility.yul\":5491:5503   */\n      dup3\n        /* \"#utility.yul\":5457:5520   */\n      tag_102\n      jump\t// in\n    tag_204:\n        /* \"#utility.yul\":5365:5530   */\n      pop\n        /* \"#utility.yul\":5547:5551   */\n      dup1\n        /* \"#utility.yul\":5540:5551   */\n      swap2\n      pop\n        /* \"#utility.yul\":4544:5557   */\n      pop\n        /* \"#utility.yul\":4428:5557   */\n      swap3\n      swap2\n      pop\n      pop\n      jump\t// out\n        /* \"#utility.yul\":5563:5920   */\n    tag_21:\n        /* \"#utility.yul\":5698:5702   */\n      0x00\n        /* \"#utility.yul\":5736:5738   */\n      0x20\n        /* \"#utility.yul\":5725:5734   */\n      dup3\n        /* \"#utility.yul\":5721:5739   */\n      add\n        /* \"#utility.yul\":5713:5739   */\n      swap1\n      pop\n        /* \"#utility.yul\":5785:5794   */\n      dup2\n        /* \"#utility.yul\":5779:5783   */\n      dup2\n        /* \"#utility.yul\":5775:5795   */\n      sub\n        /* \"#utility.yul\":5771:5772   */\n      0x00\n        /* \"#utility.yul\":5760:5769   */\n      dup4\n        /* \"#utility.yul\":5756:5773   */\n      add\n        /* \"#utility.yul\":5749:5796   */\n      mstore\n        /* \"#utility.yul\":5813:5913   */\n      tag_206\n        /* \"#utility.yul\":5908:5912   */\n      dup2\n        /* \"#utility.yul\":5899:5905   */\n      dup5\n        /* \"#utility.yul\":5813:5913   */\n      tag_106\n      jump\t// in\n    tag_206:\n        /* \"#utility.yul\":5805:5913   */\n      swap1\n      pop\n        /* \"#utility.yul\":5563:5920   */\n      swap3\n      swap2\n      pop\n      pop\n      jump\t// out\n        /* \"#utility.yul\":5926:6015   */\n    tag_107:\n        /* \"#utility.yul\":5962:5969   */\n      0x00\n        /* \"#utility.yul\":6002:6008   */\n      0xffff\n        /* \"#utility.yul\":5995:6000   */\n      dup3\n        /* \"#utility.yul\":5991:6009   */\n      and\n        /* \"#utility.yul\":5980:6009   */\n      swap1\n      pop\n        /* \"#utility.yul\":5926:6015   */\n      swap2\n      swap1\n      pop\n      jump\t// out\n        /* \"#utility.yul\":6021:6141   */\n    tag_108:\n        /* \"#utility.yul\":6093:6116   */\n      tag_209\n        /* \"#utility.yul\":6110:6115   */\n      dup2\n        /* \"#utility.yul\":6093:6116   */\n      tag_107\n      jump\t// in\n    tag_209:\n        /* \"#utility.yul\":6086:6091   */\n      dup2\n        /* \"#utility.yul\":6083:6117   */\n      eq\n        /* \"#utility.yul\":6073:6135   */\n      tag_210\n      jumpi\n        /* \"#utility.yul\":6131:6132   */\n      0x00\n        /* \"#utility.yul\":6128:6129   */\n      dup1\n        /* \"#utility.yul\":6121:6133   */\n      revert\n        /* \"#utility.yul\":6073:6135   */\n    tag_210:\n        /* \"#utility.yul\":6021:6141   */\n      pop\n      jump\t// out\n        /* \"#utility.yul\":6147:6284   */\n    tag_109:\n        /* \"#utility.yul\":6192:6197   */\n      0x00\n        /* \"#utility.yul\":6230:6236   */\n      dup2\n        /* \"#utility.yul\":6217:6237   */\n      calldataload\n        /* \"#utility.yul\":6208:6237   */\n      swap1\n      pop\n        /* \"#utility.yul\":6246:6278   */\n      tag_212\n        /* \"#utility.yul\":6272:6277   */\n      dup2\n        /* \"#utility.yul\":6246:6278   */\n      tag_108\n      jump\t// in\n    tag_212:\n        /* \"#utility.yul\":6147:6284   */\n      swap3\n      swap2\n      pop\n      pop\n      jump\t// out\n        /* \"#utility.yul\":6290:6617   */\n    tag_24:\n        /* \"#utility.yul\":6348:6354   */\n      0x00\n        /* \"#utility.yul\":6397:6399   */\n      0x20\n        /* \"#utility.yul\":6385:6394   */\n      dup3\n        /* \"#utility.yul\":6376:6383   */\n      dup5\n        /* \"#utility.yul\":6372:6395   */\n      sub\n        /* \"#utility.yul\":6368:6400   */\n      slt\n        /* \"#utility.yul\":6365:6484   */\n      iszero\n      tag_214\n      jumpi\n        /* \"#utility.yul\":6403:6482   */\n      tag_215\n      tag_86\n      jump\t// in\n    tag_215:\n        /* \"#utility.yul\":6365:6484   */\n    tag_214:\n        /* \"#utility.yul\":6523:6524   */\n      0x00\n        /* \"#utility.yul\":6548:6600   */\n      tag_216\n        /* \"#utility.yul\":6592:6599   */\n      dup5\n        /* \"#utility.yul\":6583:6589   */\n      dup3\n        /* \"#utility.yul\":6572:6581   */\n      dup6\n        /* \"#utility.yul\":6568:6590   */\n      add\n        /* \"#utility.yul\":6548:6600   */\n      tag_109\n      jump\t// in\n    tag_216:\n        /* \"#utility.yul\":6538:6600   */\n      swap2\n      pop\n        /* \"#utility.yul\":6494:6610   */\n      pop\n        /* \"#utility.yul\":6290:6617   */\n      swap3\n      swap2\n      pop\n      pop\n      jump\t// out\n        /* \"#utility.yul\":6623:6738   */\n    tag_110:\n        /* \"#utility.yul\":6708:6731   */\n      tag_218\n        /* \"#utility.yul\":6725:6730   */\n      dup2\n        /* \"#utility.yul\":6708:6731   */\n      tag_107\n      jump\t// in\n    tag_218:\n        /* \"#utility.yul\":6703:6706   */\n      dup3\n        /* \"#utility.yul\":6696:6732   */\n      mstore\n        /* \"#utility.yul\":6623:6738   */\n      pop\n      pop\n      jump\t// out\n        /* \"#utility.yul\":6744:6962   */\n    tag_29:\n        /* \"#utility.yul\":6835:6839   */\n      0x00\n        /* \"#utility.yul\":6873:6875   */\n      0x20\n        /* \"#utility.yul\":6862:6871   */\n      dup3\n        /* \"#utility.yul\":6858:6876   */\n      add\n        /* \"#utility.yul\":6850:6876   */\n      swap1\n      pop\n        /* \"#utility.yul\":6886:6955   */\n      tag_220\n        /* \"#utility.yul\":6952:6953   */\n      0x00\n        /* \"#utility.yul\":6941:6950   */\n      dup4\n        /* \"#utility.yul\":6937:6954   */\n      add\n        /* \"#utility.yul\":6928:6934   */\n      dup5\n        /* \"#utility.yul\":6886:6955   */\n      tag_110\n      jump\t// in\n    tag_220:\n        /* \"#utility.yul\":6744:6962   */\n      swap3\n      swap2\n      pop\n      pop\n      jump\t// out\n        /* \"#utility.yul\":6968:7085   */\n    tag_111:\n        /* \"#utility.yul\":7077:7078   */\n      0x00\n        /* \"#utility.yul\":7074:7075   */\n      dup1\n        /* \"#utility.yul\":7067:7079   */\n      revert\n        /* \"#utility.yul\":7091:7208   */\n    tag_112:\n        /* \"#utility.yul\":7200:7201   */\n      0x00\n        /* \"#utility.yul\":7197:7198   */\n      dup1\n        /* \"#utility.yul\":7190:7202   */\n      revert\n        /* \"#utility.yul\":7214:7394   */\n    tag_113:\n        /* \"#utility.yul\":7262:7339   */\n      0x4e487b7100000000000000000000000000000000000000000000000000000000\n        /* \"#utility.yul\":7259:7260   */\n      0x00\n        /* \"#utility.yul\":7252:7340   */\n      mstore\n        /* \"#utility.yul\":7359:7363   */\n      0x41\n        /* \"#utility.yul\":7356:7357   */\n      0x04\n        /* \"#utility.yul\":7349:7364   */\n      mstore\n        /* \"#utility.yul\":7383:7387   */\n      0x24\n        /* \"#utility.yul\":7380:7381   */\n      0x00\n        /* \"#utility.yul\":7373:7388   */\n      revert\n        /* \"#utility.yul\":7400:7681   */\n    tag_114:\n        /* \"#utility.yul\":7483:7510   */\n      tag_225\n        /* \"#utility.yul\":7505:7509   */\n      dup3\n        /* \"#utility.yul\":7483:7510   */\n      tag_100\n      jump\t// in\n    tag_225:\n        /* \"#utility.yul\":7475:7481   */\n      dup2\n        /* \"#utility.yul\":7471:7511   */\n      add\n        /* \"#utility.yul\":7613:7619   */\n      dup2\n        /* \"#utility.yul\":7601:7611   */\n      dup2\n        /* \"#utility.yul\":7598:7620   */\n      lt\n        /* \"#utility.yul\":7577:7595   */\n      0xffffffffffffffff\n        /* \"#utility.yul\":7565:7575   */\n      dup3\n        /* \"#utility.yul\":7562:7596   */\n      gt\n        /* \"#utility.yul\":7559:7621   */\n      or\n        /* \"#utility.yul\":7556:7644   */\n      iszero\n      tag_226\n      jumpi\n        /* \"#utility.yul\":7624:7642   */\n      tag_227\n      tag_113\n      jump\t// in\n    tag_227:\n        /* \"#utility.yul\":7556:7644   */\n    tag_226:\n        /* \"#utility.yul\":7664:7674   */\n      dup1\n        /* \"#utility.yul\":7660:7662   */\n      0x40\n        /* \"#utility.yul\":7653:7675   */\n      mstore\n        /* \"#utility.yul\":7443:7681   */\n      pop\n        /* \"#utility.yul\":7400:7681   */\n      pop\n      pop\n      jump\t// out\n        /* \"#utility.yul\":7687:7816   */\n    tag_115:\n        /* \"#utility.yul\":7721:7727   */\n      0x00\n        /* \"#utility.yul\":7748:7768   */\n      tag_229\n      tag_85\n      jump\t// in\n    tag_229:\n        /* \"#utility.yul\":7738:7768   */\n      swap1\n      pop\n        /* \"#utility.yul\":7777:7810   */\n      tag_230\n        /* \"#utility.yul\":7805:7809   */\n      dup3\n        /* \"#utility.yul\":7797:7803   */\n      dup3\n        /* \"#utility.yul\":7777:7810   */\n      tag_114\n      jump\t// in\n    tag_230:\n        /* \"#utility.yul\":7687:7816   */\n      swap2\n      swap1\n      pop\n      jump\t// out\n        /* \"#utility.yul\":7822:8130   */\n    tag_116:\n        /* \"#utility.yul\":7884:7888   */\n      0x00\n        /* \"#utility.yul\":7974:7992   */\n      0xffffffffffffffff\n        /* \"#utility.yul\":7966:7972   */\n      dup3\n        /* \"#utility.yul\":7963:7993   */\n      gt\n        /* \"#utility.yul\":7960:8016   */\n      iszero\n      tag_232\n      jumpi\n        /* \"#utility.yul\":7996:8014   */\n      tag_233\n      tag_113\n      jump\t// in\n    tag_233:\n        /* \"#utility.yul\":7960:8016   */\n    tag_232:\n        /* \"#utility.yul\":8034:8063   */\n      tag_234\n        /* \"#utility.yul\":8056:8062   */\n      dup3\n        /* \"#utility.yul\":8034:8063   */\n      tag_100\n      jump\t// in\n    tag_234:\n        /* \"#utility.yul\":8026:8063   */\n      swap1\n      pop\n        /* \"#utility.yul\":8118:8122   */\n      0x20\n        /* \"#utility.yul\":8112:8116   */\n      dup2\n        /* \"#utility.yul\":8108:8123   */\n      add\n        /* \"#utility.yul\":8100:8123   */\n      swap1\n      pop\n        /* \"#utility.yul\":7822:8130   */\n      swap2\n      swap1\n      pop\n      jump\t// out\n        /* \"#utility.yul\":8136:8284   */\n    tag_117:\n        /* \"#utility.yul\":8234:8240   */\n      dup3\n        /* \"#utility.yul\":8229:8232   */\n      dup2\n        /* \"#utility.yul\":8224:8227   */\n      dup4\n        /* \"#utility.yul\":8211:8241   */\n      calldatacopy\n        /* \"#utility.yul\":8275:8276   */\n      0x00\n        /* \"#utility.yul\":8266:8272   */\n      dup4\n        /* \"#utility.yul\":8261:8264   */\n      dup4\n        /* \"#utility.yul\":8257:8273   */\n      add\n        /* \"#utility.yul\":8250:8277   */\n      mstore\n        /* \"#utility.yul\":8136:8284   */\n      pop\n      pop\n      pop\n      jump\t// out\n        /* \"#utility.yul\":8290:8715   */\n    tag_118:\n        /* \"#utility.yul\":8368:8373   */\n      0x00\n        /* \"#utility.yul\":8393:8459   */\n      tag_237\n        /* \"#utility.yul\":8409:8458   */\n      tag_238\n        /* \"#utility.yul\":8451:8457   */\n      dup5\n        /* \"#utility.yul\":8409:8458   */\n      tag_116\n      jump\t// in\n    tag_238:\n        /* \"#utility.yul\":8393:8459   */\n      tag_115\n      jump\t// in\n    tag_237:\n        /* \"#utility.yul\":8384:8459   */\n      swap1\n      pop\n        /* \"#utility.yul\":8482:8488   */\n      dup3\n        /* \"#utility.yul\":8475:8480   */\n      dup2\n        /* \"#utility.yul\":8468:8489   */\n      mstore\n        /* \"#utility.yul\":8520:8524   */\n      0x20\n        /* \"#utility.yul\":8513:8518   */\n      dup2\n        /* \"#utility.yul\":8509:8525   */\n      add\n        /* \"#utility.yul\":8558:8561   */\n      dup5\n        /* \"#utility.yul\":8549:8555   */\n      dup5\n        /* \"#utility.yul\":8544:8547   */\n      dup5\n        /* \"#utility.yul\":8540:8556   */\n      add\n        /* \"#utility.yul\":8537:8562   */\n      gt\n        /* \"#utility.yul\":8534:8646   */\n      iszero\n      tag_239\n      jumpi\n        /* \"#utility.yul\":8565:8644   */\n      tag_240\n      tag_112\n      jump\t// in\n    tag_240:\n        /* \"#utility.yul\":8534:8646   */\n    tag_239:\n        /* \"#utility.yul\":8655:8709   */\n      tag_241\n        /* \"#utility.yul\":8702:8708   */\n      dup5\n        /* \"#utility.yul\":8697:8700   */\n      dup3\n        /* \"#utility.yul\":8692:8695   */\n      dup6\n        /* \"#utility.yul\":8655:8709   */\n      tag_117\n      jump\t// in\n    tag_241:\n        /* \"#utility.yul\":8374:8715   */\n      pop\n        /* \"#utility.yul\":8290:8715   */\n      swap4\n      swap3\n      pop\n      pop\n      pop\n      jump\t// out\n        /* \"#utility.yul\":8735:9075   */\n    tag_119:\n        /* \"#utility.yul\":8791:8796   */\n      0x00\n        /* \"#utility.yul\":8840:8843   */\n      dup3\n        /* \"#utility.yul\":8833:8837   */\n      0x1f\n        /* \"#utility.yul\":8825:8831   */\n      dup4\n        /* \"#utility.yul\":8821:8838   */\n      add\n        /* \"#utility.yul\":8817:8844   */\n      slt\n        /* \"#utility.yul\":8807:8929   */\n      tag_243\n      jumpi\n        /* \"#utility.yul\":8848:8927   */\n      tag_244\n      tag_111\n      jump\t// in\n    tag_244:\n        /* \"#utility.yul\":8807:8929   */\n    tag_243:\n        /* \"#utility.yul\":8965:8971   */\n      dup2\n        /* \"#utility.yul\":8952:8972   */\n      calldataload\n        /* \"#utility.yul\":8990:9069   */\n      tag_245\n        /* \"#utility.yul\":9065:9068   */\n      dup5\n        /* \"#utility.yul\":9057:9063   */\n      dup3\n        /* \"#utility.yul\":9050:9054   */\n      0x20\n        /* \"#utility.yul\":9042:9048   */\n      dup7\n        /* \"#utility.yul\":9038:9055   */\n      add\n        /* \"#utility.yul\":8990:9069   */\n      tag_118\n      jump\t// in\n    tag_245:\n        /* \"#utility.yul\":8981:9069   */\n      swap2\n      pop\n        /* \"#utility.yul\":8797:9075   */\n      pop\n        /* \"#utility.yul\":8735:9075   */\n      swap3\n      swap2\n      pop\n      pop\n      jump\t// out\n        /* \"#utility.yul\":9081:9590   */\n    tag_32:\n        /* \"#utility.yul\":9150:9156   */\n      0x00\n        /* \"#utility.yul\":9199:9201   */\n      0x20\n        /* \"#utility.yul\":9187:9196   */\n      dup3\n        /* \"#utility.yul\":9178:9185   */\n      dup5\n        /* \"#utility.yul\":9174:9197   */\n      sub\n        /* \"#utility.yul\":9170:9202   */\n      slt\n        /* \"#utility.yul\":9167:9286   */\n      iszero\n      tag_247\n      jumpi\n        /* \"#utility.yul\":9205:9284   */\n      tag_248\n      tag_86\n      jump\t// in\n    tag_248:\n        /* \"#utility.yul\":9167:9286   */\n    tag_247:\n        /* \"#utility.yul\":9353:9354   */\n      0x00\n        /* \"#utility.yul\":9342:9351   */\n      dup3\n        /* \"#utility.yul\":9338:9355   */\n      add\n        /* \"#utility.yul\":9325:9356   */\n      calldataload\n        /* \"#utility.yul\":9383:9401   */\n      0xffffffffffffffff\n        /* \"#utility.yul\":9375:9381   */\n      dup2\n        /* \"#utility.yul\":9372:9402   */\n      gt\n        /* \"#utility.yul\":9369:9486   */\n      iszero\n      tag_249\n      jumpi\n        /* \"#utility.yul\":9405:9484   */\n      tag_250\n      tag_87\n      jump\t// in\n    tag_250:\n        /* \"#utility.yul\":9369:9486   */\n    tag_249:\n        /* \"#utility.yul\":9510:9573   */\n      tag_251\n        /* \"#utility.yul\":9565:9572   */\n      dup5\n        /* \"#utility.yul\":9556:9562   */\n      dup3\n        /* \"#utility.yul\":9545:9554   */\n      dup6\n        /* \"#utility.yul\":9541:9563   */\n      add\n        /* \"#utility.yul\":9510:9573   */\n      tag_119\n      jump\t// in\n    tag_251:\n        /* \"#utility.yul\":9500:9573   */\n      swap2\n      pop\n        /* \"#utility.yul\":9296:9583   */\n      pop\n        /* \"#utility.yul\":9081:9590   */\n      swap3\n      swap2\n      pop\n      pop\n      jump\t// out\n        /* \"#utility.yul\":9596:9818   */\n    tag_37:\n        /* \"#utility.yul\":9689:9693   */\n      0x00\n        /* \"#utility.yul\":9727:9729   */\n      0x20\n        /* \"#utility.yul\":9716:9725   */\n      dup3\n        /* \"#utility.yul\":9712:9730   */\n      add\n        /* \"#utility.yul\":9704:9730   */\n      swap1\n      pop\n        /* \"#utility.yul\":9740:9811   */\n      tag_253\n        /* \"#utility.yul\":9808:9809   */\n      0x00\n        /* \"#utility.yul\":9797:9806   */\n      dup4\n        /* \"#utility.yul\":9793:9810   */\n      add\n        /* \"#utility.yul\":9784:9790   */\n      dup5\n        /* \"#utility.yul\":9740:9811   */\n      tag_96\n      jump\t// in\n    tag_253:\n        /* \"#utility.yul\":9596:9818   */\n      swap3\n      swap2\n      pop\n      pop\n      jump\t// out\n        /* \"#utility.yul\":9824:10153   */\n    tag_40:\n        /* \"#utility.yul\":9883:9889   */\n      0x00\n        /* \"#utility.yul\":9932:9934   */\n      0x20\n        /* \"#utility.yul\":9920:9929   */\n      dup3\n        /* \"#utility.yul\":9911:9918   */\n      dup5\n        /* \"#utility.yul\":9907:9930   */\n      sub\n        /* \"#utility.yul\":9903:9935   */\n      slt\n        /* \"#utility.yul\":9900:10019   */\n      iszero\n      tag_255\n      jumpi\n        /* \"#utility.yul\":9938:10017   */\n      tag_256\n      tag_86\n      jump\t// in\n    tag_256:\n        /* \"#utility.yul\":9900:10019   */\n    tag_255:\n        /* \"#utility.yul\":10058:10059   */\n      0x00\n        /* \"#utility.yul\":10083:10136   */\n      tag_257\n        /* \"#utility.yul\":10128:10135   */\n      dup5\n        /* \"#utility.yul\":10119:10125   */\n      dup3\n        /* \"#utility.yul\":10108:10117   */\n      dup6\n        /* \"#utility.yul\":10104:10126   */\n      add\n        /* \"#utility.yul\":10083:10136   */\n      tag_91\n      jump\t// in\n    tag_257:\n        /* \"#utility.yul\":10073:10136   */\n      swap2\n      pop\n        /* \"#utility.yul\":10029:10146   */\n      pop\n        /* \"#utility.yul\":9824:10153   */\n      swap3\n      swap2\n      pop\n      pop\n      jump\t// out\n        /* \"#utility.yul\":10159:10294   */\n    tag_120:\n        /* \"#utility.yul\":10247:10253   */\n      0x00\n        /* \"#utility.yul\":10281:10286   */\n      dup2\n        /* \"#utility.yul\":10275:10287   */\n      mload\n        /* \"#utility.yul\":10265:10287   */\n      swap1\n      pop\n        /* \"#utility.yul\":10159:10294   */\n      swap2\n      swap1\n      pop\n      jump\t// out\n        /* \"#utility.yul\":10300:10505   */\n    tag_121:\n        /* \"#utility.yul\":10420:10431   */\n      0x00\n        /* \"#utility.yul\":10454:10460   */\n      dup3\n        /* \"#utility.yul\":10449:10452   */\n      dup3\n        /* \"#utility.yul\":10442:10461   */\n      mstore\n        /* \"#utility.yul\":10494:10498   */\n      0x20\n        /* \"#utility.yul\":10489:10492   */\n      dup3\n        /* \"#utility.yul\":10485:10499   */\n      add\n        /* \"#utility.yul\":10470:10499   */\n      swap1\n      pop\n        /* \"#utility.yul\":10300:10505   */\n      swap3\n      swap2\n      pop\n      pop\n      jump\t// out\n        /* \"#utility.yul\":10511:10664   */\n    tag_122:\n        /* \"#utility.yul\":10599:10603   */\n      0x00\n        /* \"#utility.yul\":10622:10625   */\n      dup2\n        /* \"#utility.yul\":10614:10625   */\n      swap1\n      pop\n        /* \"#utility.yul\":10652:10656   */\n      0x20\n        /* \"#utility.yul\":10647:10650   */\n      dup3\n        /* \"#utility.yul\":10643:10657   */\n      add\n        /* \"#utility.yul\":10635:10657   */\n      swap1\n      pop\n        /* \"#utility.yul\":10511:10664   */\n      swap2\n      swap1\n      pop\n      jump\t// out\n        /* \"#utility.yul\":10740:11859   */\n    tag_123:\n        /* \"#utility.yul\":10841:10844   */\n      0x00\n        /* \"#utility.yul\":10877:10881   */\n      0xa0\n        /* \"#utility.yul\":10872:10875   */\n      dup4\n        /* \"#utility.yul\":10868:10882   */\n      add\n        /* \"#utility.yul\":10962:10966   */\n      0x00\n        /* \"#utility.yul\":10955:10960   */\n      dup4\n        /* \"#utility.yul\":10951:10967   */\n      add\n        /* \"#utility.yul\":10945:10968   */\n      mload\n        /* \"#utility.yul\":10981:11044   */\n      tag_262\n        /* \"#utility.yul\":11038:11042   */\n      0x00\n        /* \"#utility.yul\":11033:11036   */\n      dup7\n        /* \"#utility.yul\":11029:11043   */\n      add\n        /* \"#utility.yul\":11015:11027   */\n      dup3\n        /* \"#utility.yul\":10981:11044   */\n      tag_102\n      jump\t// in\n    tag_262:\n        /* \"#utility.yul\":10892:11054   */\n      pop\n        /* \"#utility.yul\":11138:11142   */\n      0x20\n        /* \"#utility.yul\":11131:11136   */\n      dup4\n        /* \"#utility.yul\":11127:11143   */\n      add\n        /* \"#utility.yul\":11121:11144   */\n      mload\n        /* \"#utility.yul\":11157:11220   */\n      tag_263\n        /* \"#utility.yul\":11214:11218   */\n      0x20\n        /* \"#utility.yul\":11209:11212   */\n      dup7\n        /* \"#utility.yul\":11205:11219   */\n      add\n        /* \"#utility.yul\":11191:11203   */\n      dup3\n        /* \"#utility.yul\":11157:11220   */\n      tag_103\n      jump\t// in\n    tag_263:\n        /* \"#utility.yul\":11064:11230   */\n      pop\n        /* \"#utility.yul\":11315:11319   */\n      0x40\n        /* \"#utility.yul\":11308:11313   */\n      dup4\n        /* \"#utility.yul\":11304:11320   */\n      add\n        /* \"#utility.yul\":11298:11321   */\n      mload\n        /* \"#utility.yul\":11368:11371   */\n      dup5\n        /* \"#utility.yul\":11362:11366   */\n      dup3\n        /* \"#utility.yul\":11358:11372   */\n      sub\n        /* \"#utility.yul\":11351:11355   */\n      0x40\n        /* \"#utility.yul\":11346:11349   */\n      dup7\n        /* \"#utility.yul\":11342:11356   */\n      add\n        /* \"#utility.yul\":11335:11373   */\n      mstore\n        /* \"#utility.yul\":11394:11467   */\n      tag_264\n        /* \"#utility.yul\":11462:11466   */\n      dup3\n        /* \"#utility.yul\":11448:11460   */\n      dup3\n        /* \"#utility.yul\":11394:11467   */\n      tag_105\n      jump\t// in\n    tag_264:\n        /* \"#utility.yul\":11386:11467   */\n      swap2\n      pop\n        /* \"#utility.yul\":11240:11478   */\n      pop\n        /* \"#utility.yul\":11565:11569   */\n      0x60\n        /* \"#utility.yul\":11558:11563   */\n      dup4\n        /* \"#utility.yul\":11554:11570   */\n      add\n        /* \"#utility.yul\":11548:11571   */\n      mload\n        /* \"#utility.yul\":11584:11647   */\n      tag_265\n        /* \"#utility.yul\":11641:11645   */\n      0x60\n        /* \"#utility.yul\":11636:11639   */\n      dup7\n        /* \"#utility.yul\":11632:11646   */\n      add\n        /* \"#utility.yul\":11618:11630   */\n      dup3\n        /* \"#utility.yul\":11584:11647   */\n      tag_102\n      jump\t// in\n    tag_265:\n        /* \"#utility.yul\":11488:11657   */\n      pop\n        /* \"#utility.yul\":11740:11744   */\n      0x80\n        /* \"#utility.yul\":11733:11738   */\n      dup4\n        /* \"#utility.yul\":11729:11745   */\n      add\n        /* \"#utility.yul\":11723:11746   */\n      mload\n        /* \"#utility.yul\":11759:11822   */\n      tag_266\n        /* \"#utility.yul\":11816:11820   */\n      0x80\n        /* \"#utility.yul\":11811:11814   */\n      dup7\n        /* \"#utility.yul\":11807:11821   */\n      add\n        /* \"#utility.yul\":11793:11805   */\n      dup3\n        /* \"#utility.yul\":11759:11822   */\n      tag_102\n      jump\t// in\n    tag_266:\n        /* \"#utility.yul\":11667:11832   */\n      pop\n        /* \"#utility.yul\":11849:11853   */\n      dup1\n        /* \"#utility.yul\":11842:11853   */\n      swap2\n      pop\n        /* \"#utility.yul\":10846:11859   */\n      pop\n        /* \"#utility.yul\":10740:11859   */\n      swap3\n      swap2\n      pop\n      pop\n      jump\t// out\n        /* \"#utility.yul\":11865:12105   */\n    tag_124:\n        /* \"#utility.yul\":11976:11986   */\n      0x00\n        /* \"#utility.yul\":12011:12099   */\n      tag_268\n        /* \"#utility.yul\":12095:12098   */\n      dup4\n        /* \"#utility.yul\":12087:12093   */\n      dup4\n        /* \"#utility.yul\":12011:12099   */\n      tag_123\n      jump\t// in\n    tag_268:\n        /* \"#utility.yul\":11997:12099   */\n      swap1\n      pop\n        /* \"#utility.yul\":11865:12105   */\n      swap3\n      swap2\n      pop\n      pop\n      jump\t// out\n        /* \"#utility.yul\":12111:12245   */\n    tag_125:\n        /* \"#utility.yul\":12202:12206   */\n      0x00\n        /* \"#utility.yul\":12234:12238   */\n      0x20\n        /* \"#utility.yul\":12229:12232   */\n      dup3\n        /* \"#utility.yul\":12225:12239   */\n      add\n        /* \"#utility.yul\":12217:12239   */\n      swap1\n      pop\n        /* \"#utility.yul\":12111:12245   */\n      swap2\n      swap1\n      pop\n      jump\t// out\n        /* \"#utility.yul\":12325:13404   */\n    tag_126:\n        /* \"#utility.yul\":12486:12489   */\n      0x00\n        /* \"#utility.yul\":12515:12590   */\n      tag_271\n        /* \"#utility.yul\":12584:12589   */\n      dup3\n        /* \"#utility.yul\":12515:12590   */\n      tag_120\n      jump\t// in\n    tag_271:\n        /* \"#utility.yul\":12606:12713   */\n      tag_272\n        /* \"#utility.yul\":12706:12712   */\n      dup2\n        /* \"#utility.yul\":12701:12704   */\n      dup6\n        /* \"#utility.yul\":12606:12713   */\n      tag_121\n      jump\t// in\n    tag_272:\n        /* \"#utility.yul\":12599:12713   */\n      swap4\n      pop\n        /* \"#utility.yul\":12739:12742   */\n      dup4\n        /* \"#utility.yul\":12784:12788   */\n      0x20\n        /* \"#utility.yul\":12776:12782   */\n      dup3\n        /* \"#utility.yul\":12772:12789   */\n      mul\n        /* \"#utility.yul\":12767:12770   */\n      dup6\n        /* \"#utility.yul\":12763:12790   */\n      add\n        /* \"#utility.yul\":12814:12891   */\n      tag_273\n        /* \"#utility.yul\":12885:12890   */\n      dup6\n        /* \"#utility.yul\":12814:12891   */\n      tag_122\n      jump\t// in\n    tag_273:\n        /* \"#utility.yul\":12914:12921   */\n      dup1\n        /* \"#utility.yul\":12945:12946   */\n      0x00\n        /* \"#utility.yul\":12930:13359   */\n    tag_274:\n        /* \"#utility.yul\":12955:12961   */\n      dup6\n        /* \"#utility.yul\":12952:12953   */\n      dup2\n        /* \"#utility.yul\":12949:12962   */\n      lt\n        /* \"#utility.yul\":12930:13359   */\n      iszero\n      tag_276\n      jumpi\n        /* \"#utility.yul\":13026:13035   */\n      dup5\n        /* \"#utility.yul\":13020:13024   */\n      dup5\n        /* \"#utility.yul\":13016:13036   */\n      sub\n        /* \"#utility.yul\":13011:13014   */\n      dup10\n        /* \"#utility.yul\":13004:13037   */\n      mstore\n        /* \"#utility.yul\":13077:13083   */\n      dup2\n        /* \"#utility.yul\":13071:13084   */\n      mload\n        /* \"#utility.yul\":13105:13211   */\n      tag_277\n        /* \"#utility.yul\":13206:13210   */\n      dup6\n        /* \"#utility.yul\":13191:13204   */\n      dup3\n        /* \"#utility.yul\":13105:13211   */\n      tag_124\n      jump\t// in\n    tag_277:\n        /* \"#utility.yul\":13097:13211   */\n      swap5\n      pop\n        /* \"#utility.yul\":13234:13315   */\n      tag_278\n        /* \"#utility.yul\":13308:13314   */\n      dup4\n        /* \"#utility.yul\":13234:13315   */\n      tag_125\n      jump\t// in\n    tag_278:\n        /* \"#utility.yul\":13224:13315   */\n      swap3\n      pop\n        /* \"#utility.yul\":13344:13348   */\n      0x20\n        /* \"#utility.yul\":13339:13342   */\n      dup11\n        /* \"#utility.yul\":13335:13349   */\n      add\n        /* \"#utility.yul\":13328:13349   */\n      swap10\n      pop\n        /* \"#utility.yul\":12990:13359   */\n      pop\n        /* \"#utility.yul\":12977:12978   */\n      0x01\n        /* \"#utility.yul\":12974:12975   */\n      dup2\n        /* \"#utility.yul\":12970:12979   */\n      add\n        /* \"#utility.yul\":12965:12979   */\n      swap1\n      pop\n        /* \"#utility.yul\":12930:13359   */\n      jump(tag_274)\n    tag_276:\n        /* \"#utility.yul\":12934:12948   */\n      pop\n        /* \"#utility.yul\":13375:13379   */\n      dup3\n        /* \"#utility.yul\":13368:13379   */\n      swap8\n      pop\n        /* \"#utility.yul\":13395:13398   */\n      dup8\n        /* \"#utility.yul\":13388:13398   */\n      swap6\n      pop\n        /* \"#utility.yul\":12491:13404   */\n      pop\n      pop\n      pop\n      pop\n      pop\n        /* \"#utility.yul\":12325:13404   */\n      swap3\n      swap2\n      pop\n      pop\n      jump\t// out\n        /* \"#utility.yul\":13410:13867   */\n    tag_43:\n        /* \"#utility.yul\":13595:13599   */\n      0x00\n        /* \"#utility.yul\":13633:13635   */\n      0x20\n        /* \"#utility.yul\":13622:13631   */\n      dup3\n        /* \"#utility.yul\":13618:13636   */\n      add\n        /* \"#utility.yul\":13610:13636   */\n      swap1\n      pop\n        /* \"#utility.yul\":13682:13691   */\n      dup2\n        /* \"#utility.yul\":13676:13680   */\n      dup2\n        /* \"#utility.yul\":13672:13692   */\n      sub\n        /* \"#utility.yul\":13668:13669   */\n      0x00\n        /* \"#utility.yul\":13657:13666   */\n      dup4\n        /* \"#utility.yul\":13653:13670   */\n      add\n        /* \"#utility.yul\":13646:13693   */\n      mstore\n        /* \"#utility.yul\":13710:13860   */\n      tag_280\n        /* \"#utility.yul\":13855:13859   */\n      dup2\n        /* \"#utility.yul\":13846:13852   */\n      dup5\n        /* \"#utility.yul\":13710:13860   */\n      tag_126\n      jump\t// in\n    tag_280:\n        /* \"#utility.yul\":13702:13860   */\n      swap1\n      pop\n        /* \"#utility.yul\":13410:13867   */\n      swap3\n      swap2\n      pop\n      pop\n      jump\t// out\n        /* \"#utility.yul\":13873:14053   */\n    tag_127:\n        /* \"#utility.yul\":13921:13998   */\n      0x4e487b7100000000000000000000000000000000000000000000000000000000\n        /* \"#utility.yul\":13918:13919   */\n      0x00\n        /* \"#utility.yul\":13911:13999   */\n      mstore\n        /* \"#utility.yul\":14018:14022   */\n      0x22\n        /* \"#utility.yul\":14015:14016   */\n      0x04\n        /* \"#utility.yul\":14008:14023   */\n      mstore\n        /* \"#utility.yul\":14042:14046   */\n      0x24\n        /* \"#utility.yul\":14039:14040   */\n      0x00\n        /* \"#utility.yul\":14032:14047   */\n      revert\n        /* \"#utility.yul\":14059:14379   */\n    tag_47:\n        /* \"#utility.yul\":14103:14109   */\n      0x00\n        /* \"#utility.yul\":14140:14141   */\n      0x02\n        /* \"#utility.yul\":14134:14138   */\n      dup3\n        /* \"#utility.yul\":14130:14142   */\n      div\n        /* \"#utility.yul\":14120:14142   */\n      swap1\n      pop\n        /* \"#utility.yul\":14187:14188   */\n      0x01\n        /* \"#utility.yul\":14181:14185   */\n      dup3\n        /* \"#utility.yul\":14177:14189   */\n      and\n        /* \"#utility.yul\":14208:14226   */\n      dup1\n        /* \"#utility.yul\":14198:14279   */\n      tag_283\n      jumpi\n        /* \"#utility.yul\":14264:14268   */\n      0x7f\n        /* \"#utility.yul\":14256:14262   */\n      dup3\n        /* \"#utility.yul\":14252:14269   */\n      and\n        /* \"#utility.yul\":14242:14269   */\n      swap2\n      pop\n        /* \"#utility.yul\":14198:14279   */\n    tag_283:\n        /* \"#utility.yul\":14326:14328   */\n      0x20\n        /* \"#utility.yul\":14318:14324   */\n      dup3\n        /* \"#utility.yul\":14315:14329   */\n      lt\n        /* \"#utility.yul\":14295:14313   */\n      dup2\n        /* \"#utility.yul\":14292:14330   */\n      sub\n        /* \"#utility.yul\":14289:14373   */\n      tag_284\n      jumpi\n        /* \"#utility.yul\":14345:14363   */\n      tag_285\n      tag_127\n      jump\t// in\n    tag_285:\n        /* \"#utility.yul\":14289:14373   */\n    tag_284:\n        /* \"#utility.yul\":14110:14379   */\n      pop\n        /* \"#utility.yul\":14059:14379   */\n      swap2\n      swap1\n      pop\n      jump\t// out\n        /* \"#utility.yul\":14385:14565   */\n    tag_57:\n        /* \"#utility.yul\":14433:14510   */\n      0x4e487b7100000000000000000000000000000000000000000000000000000000\n        /* \"#utility.yul\":14430:14431   */\n      0x00\n        /* \"#utility.yul\":14423:14511   */\n      mstore\n        /* \"#utility.yul\":14530:14534   */\n      0x32\n        /* \"#utility.yul\":14527:14528   */\n      0x04\n        /* \"#utility.yul\":14520:14535   */\n      mstore\n        /* \"#utility.yul\":14554:14558   */\n      0x24\n        /* \"#utility.yul\":14551:14552   */\n      0x00\n        /* \"#utility.yul\":14544:14559   */\n      revert\n        /* \"#utility.yul\":14571:14742   */\n    tag_128:\n        /* \"#utility.yul\":14711:14734   */\n      0x594f5520415245204e4f5420544845204f574e45520000000000000000000000\n        /* \"#utility.yul\":14707:14708   */\n      0x00\n        /* \"#utility.yul\":14699:14705   */\n      dup3\n        /* \"#utility.yul\":14695:14709   */\n      add\n        /* \"#utility.yul\":14688:14735   */\n      mstore\n        /* \"#utility.yul\":14571:14742   */\n      pop\n      jump\t// out\n        /* \"#utility.yul\":14748:15114   */\n    tag_129:\n        /* \"#utility.yul\":14890:14893   */\n      0x00\n        /* \"#utility.yul\":14911:14978   */\n      tag_289\n        /* \"#utility.yul\":14975:14977   */\n      0x15\n        /* \"#utility.yul\":14970:14973   */\n      dup4\n        /* \"#utility.yul\":14911:14978   */\n      tag_98\n      jump\t// in\n    tag_289:\n        /* \"#utility.yul\":14904:14978   */\n      swap2\n      pop\n        /* \"#utility.yul\":14987:15080   */\n      tag_290\n        /* \"#utility.yul\":15076:15079   */\n      dup3\n        /* \"#utility.yul\":14987:15080   */\n      tag_128\n      jump\t// in\n    tag_290:\n        /* \"#utility.yul\":15105:15107   */\n      0x20\n        /* \"#utility.yul\":15100:15103   */\n      dup3\n        /* \"#utility.yul\":15096:15108   */\n      add\n        /* \"#utility.yul\":15089:15108   */\n      swap1\n      pop\n        /* \"#utility.yul\":14748:15114   */\n      swap2\n      swap1\n      pop\n      jump\t// out\n        /* \"#utility.yul\":15120:15539   */\n    tag_67:\n        /* \"#utility.yul\":15286:15290   */\n      0x00\n        /* \"#utility.yul\":15324:15326   */\n      0x20\n        /* \"#utility.yul\":15313:15322   */\n      dup3\n        /* \"#utility.yul\":15309:15327   */\n      add\n        /* \"#utility.yul\":15301:15327   */\n      swap1\n      pop\n        /* \"#utility.yul\":15373:15382   */\n      dup2\n        /* \"#utility.yul\":15367:15371   */\n      dup2\n        /* \"#utility.yul\":15363:15383   */\n      sub\n        /* \"#utility.yul\":15359:15360   */\n      0x00\n        /* \"#utility.yul\":15348:15357   */\n      dup4\n        /* \"#utility.yul\":15344:15361   */\n      add\n        /* \"#utility.yul\":15337:15384   */\n      mstore\n        /* \"#utility.yul\":15401:15532   */\n      tag_292\n        /* \"#utility.yul\":15527:15531   */\n      dup2\n        /* \"#utility.yul\":15401:15532   */\n      tag_129\n      jump\t// in\n    tag_292:\n        /* \"#utility.yul\":15393:15532   */\n      swap1\n      pop\n        /* \"#utility.yul\":15120:15539   */\n      swap2\n      swap1\n      pop\n      jump\t// out\n        /* \"#utility.yul\":15545:15726   */\n    tag_130:\n        /* \"#utility.yul\":15685:15718   */\n      0x545745455420544f4f204c4f4f4f4f4e472042524f4f4f4f4f4f4f2121212100\n        /* \"#utility.yul\":15681:15682   */\n      0x00\n        /* \"#utility.yul\":15673:15679   */\n      dup3\n        /* \"#utility.yul\":15669:15683   */\n      add\n        /* \"#utility.yul\":15662:15719   */\n      mstore\n        /* \"#utility.yul\":15545:15726   */\n      pop\n      jump\t// out\n        /* \"#utility.yul\":15732:16098   */\n    tag_131:\n        /* \"#utility.yul\":15874:15877   */\n      0x00\n        /* \"#utility.yul\":15895:15962   */\n      tag_295\n        /* \"#utility.yul\":15959:15961   */\n      0x1f\n        /* \"#utility.yul\":15954:15957   */\n      dup4\n        /* \"#utility.yul\":15895:15962   */\n      tag_98\n      jump\t// in\n    tag_295:\n        /* \"#utility.yul\":15888:15962   */\n      swap2\n      pop\n        /* \"#utility.yul\":15971:16064   */\n      tag_296\n        /* \"#utility.yul\":16060:16063   */\n      dup3\n        /* \"#utility.yul\":15971:16064   */\n      tag_130\n      jump\t// in\n    tag_296:\n        /* \"#utility.yul\":16089:16091   */\n      0x20\n        /* \"#utility.yul\":16084:16087   */\n      dup3\n        /* \"#utility.yul\":16080:16092   */\n      add\n        /* \"#utility.yul\":16073:16092   */\n      swap1\n      pop\n        /* \"#utility.yul\":15732:16098   */\n      swap2\n      swap1\n      pop\n      jump\t// out\n        /* \"#utility.yul\":16104:16523   */\n    tag_72:\n        /* \"#utility.yul\":16270:16274   */\n      0x00\n        /* \"#utility.yul\":16308:16310   */\n      0x20\n        /* \"#utility.yul\":16297:16306   */\n      dup3\n        /* \"#utility.yul\":16293:16311   */\n      add\n        /* \"#utility.yul\":16285:16311   */\n      swap1\n      pop\n        /* \"#utility.yul\":16357:16366   */\n      dup2\n        /* \"#utility.yul\":16351:16355   */\n      dup2\n        /* \"#utility.yul\":16347:16367   */\n      sub\n        /* \"#utility.yul\":16343:16344   */\n      0x00\n        /* \"#utility.yul\":16332:16341   */\n      dup4\n        /* \"#utility.yul\":16328:16345   */\n      add\n        /* \"#utility.yul\":16321:16368   */\n      mstore\n        /* \"#utility.yul\":16385:16516   */\n      tag_298\n        /* \"#utility.yul\":16511:16515   */\n      dup2\n        /* \"#utility.yul\":16385:16516   */\n      tag_131\n      jump\t// in\n    tag_298:\n        /* \"#utility.yul\":16377:16516   */\n      swap1\n      pop\n        /* \"#utility.yul\":16104:16523   */\n      swap2\n      swap1\n      pop\n      jump\t// out\n        /* \"#utility.yul\":16529:16670   */\n    tag_132:\n        /* \"#utility.yul\":16578:16582   */\n      0x00\n        /* \"#utility.yul\":16601:16604   */\n      dup2\n        /* \"#utility.yul\":16593:16604   */\n      swap1\n      pop\n        /* \"#utility.yul\":16624:16627   */\n      dup2\n        /* \"#utility.yul\":16621:16622   */\n      0x00\n        /* \"#utility.yul\":16614:16628   */\n      mstore\n        /* \"#utility.yul\":16658:16662   */\n      0x20\n        /* \"#utility.yul\":16655:16656   */\n      0x00\n        /* \"#utility.yul\":16645:16663   */\n      keccak256\n        /* \"#utility.yul\":16637:16663   */\n      swap1\n      pop\n        /* \"#utility.yul\":16529:16670   */\n      swap2\n      swap1\n      pop\n      jump\t// out\n        /* \"#utility.yul\":16676:16769   */\n    tag_133:\n        /* \"#utility.yul\":16713:16719   */\n      0x00\n        /* \"#utility.yul\":16760:16762   */\n      0x20\n        /* \"#utility.yul\":16755:16757   */\n      0x1f\n        /* \"#utility.yul\":16748:16753   */\n      dup4\n        /* \"#utility.yul\":16744:16758   */\n      add\n        /* \"#utility.yul\":16740:16763   */\n      div\n        /* \"#utility.yul\":16730:16763   */\n      swap1\n      pop\n        /* \"#utility.yul\":16676:16769   */\n      swap2\n      swap1\n      pop\n      jump\t// out\n        /* \"#utility.yul\":16775:16882   */\n    tag_134:\n        /* \"#utility.yul\":16819:16827   */\n      0x00\n        /* \"#utility.yul\":16869:16874   */\n      dup3\n        /* \"#utility.yul\":16863:16867   */\n      dup3\n        /* \"#utility.yul\":16859:16875   */\n      shl\n        /* \"#utility.yul\":16838:16875   */\n      swap1\n      pop\n        /* \"#utility.yul\":16775:16882   */\n      swap3\n      swap2\n      pop\n      pop\n      jump\t// out\n        /* \"#utility.yul\":16888:17281   */\n    tag_135:\n        /* \"#utility.yul\":16957:16963   */\n      0x00\n        /* \"#utility.yul\":17007:17008   */\n      0x08\n        /* \"#utility.yul\":16995:17005   */\n      dup4\n        /* \"#utility.yul\":16991:17009   */\n      mul\n        /* \"#utility.yul\":17030:17127   */\n      tag_303\n        /* \"#utility.yul\":17060:17126   */\n      0xffffffffffffffffffffffffffffffffffffffffffffffffffffffffffffffff\n        /* \"#utility.yul\":17049:17058   */\n      dup3\n        /* \"#utility.yul\":17030:17127   */\n      tag_134\n      jump\t// in\n    tag_303:\n        /* \"#utility.yul\":17148:17187   */\n      tag_304\n        /* \"#utility.yul\":17178:17186   */\n      dup7\n        /* \"#utility.yul\":17167:17176   */\n      dup4\n        /* \"#utility.yul\":17148:17187   */\n      tag_134\n      jump\t// in\n    tag_304:\n        /* \"#utility.yul\":17136:17187   */\n      swap6\n      pop\n        /* \"#utility.yul\":17220:17224   */\n      dup1\n        /* \"#utility.yul\":17216:17225   */\n      not\n        /* \"#utility.yul\":17209:17214   */\n      dup5\n        /* \"#utility.yul\":17205:17226   */\n      and\n        /* \"#utility.yul\":17196:17226   */\n      swap4\n      pop\n        /* \"#utility.yul\":17269:17273   */\n      dup1\n        /* \"#utility.yul\":17259:17267   */\n      dup7\n        /* \"#utility.yul\":17255:17274   */\n      and\n        /* \"#utility.yul\":17248:17253   */\n      dup5\n        /* \"#utility.yul\":17245:17275   */\n      or\n        /* \"#utility.yul\":17235:17275   */\n      swap3\n      pop\n        /* \"#utility.yul\":16964:17281   */\n      pop\n      pop\n        /* \"#utility.yul\":16888:17281   */\n      swap4\n      swap3\n      pop\n      pop\n      pop\n      jump\t// out\n        /* \"#utility.yul\":17287:17347   */\n    tag_136:\n        /* \"#utility.yul\":17315:17318   */\n      0x00\n        /* \"#utility.yul\":17336:17341   */\n      dup2\n        /* \"#utility.yul\":17329:17341   */\n      swap1\n      pop\n        /* \"#utility.yul\":17287:17347   */\n      swap2\n      swap1\n      pop\n      jump\t// out\n        /* \"#utility.yul\":17353:17495   */\n    tag_137:\n        /* \"#utility.yul\":17403:17412   */\n      0x00\n        /* \"#utility.yul\":17436:17489   */\n      tag_307\n        /* \"#utility.yul\":17454:17488   */\n      tag_308\n        /* \"#utility.yul\":17463:17487   */\n      tag_309\n        /* \"#utility.yul\":17481:17486   */\n      dup5\n        /* \"#utility.yul\":17463:17487   */\n      tag_92\n      jump\t// in\n    tag_309:\n        /* \"#utility.yul\":17454:17488   */\n      tag_136\n      jump\t// in\n    tag_308:\n        /* \"#utility.yul\":17436:17489   */\n      tag_92\n      jump\t// in\n    tag_307:\n        /* \"#utility.yul\":17423:17489   */\n      swap1\n      pop\n        /* \"#utility.yul\":17353:17495   */\n      swap2\n      swap1\n      pop\n      jump\t// out\n        /* \"#utility.yul\":17501:17576   */\n    tag_138:\n        /* \"#utility.yul\":17544:17547   */\n      0x00\n        /* \"#utility.yul\":17565:17570   */\n      dup2\n        /* \"#utility.yul\":17558:17570   */\n      swap1\n      pop\n        /* \"#utility.yul\":17501:17576   */\n      swap2\n      swap1\n      pop\n      jump\t// out\n        /* \"#utility.yul\":17582:17851   */\n    tag_139:\n        /* \"#utility.yul\":17692:17731   */\n      tag_312\n        /* \"#utility.yul\":17723:17730   */\n      dup4\n        /* \"#utility.yul\":17692:17731   */\n      tag_137\n      jump\t// in\n    tag_312:\n        /* \"#utility.yul\":17753:17844   */\n      tag_313\n        /* \"#utility.yul\":17802:17843   */\n      tag_314\n        /* \"#utility.yul\":17826:17842   */\n      dup3\n        /* \"#utility.yul\":17802:17843   */\n      tag_138\n      jump\t// in\n    tag_314:\n        /* \"#utility.yul\":17794:17800   */\n      dup5\n        /* \"#utility.yul\":17787:17791   */\n      dup5\n        /* \"#utility.yul\":17781:17792   */\n      sload\n        /* \"#utility.yul\":17753:17844   */\n      tag_135\n      jump\t// in\n    tag_313:\n        /* \"#utility.yul\":17747:17751   */\n      dup3\n        /* \"#utility.yul\":17740:17845   */\n      sstore\n        /* \"#utility.yul\":17658:17851   */\n      pop\n        /* \"#utility.yul\":17582:17851   */\n      pop\n      pop\n      pop\n      jump\t// out\n        /* \"#utility.yul\":17857:17930   */\n    tag_140:\n        /* \"#utility.yul\":17902:17905   */\n      0x00\n        /* \"#utility.yul\":17857:17930   */\n      swap1\n      jump\t// out\n        /* \"#utility.yul\":17936:18125   */\n    tag_141:\n        /* \"#utility.yul\":18013:18045   */\n      tag_317\n      tag_140\n      jump\t// in\n    tag_317:\n        /* \"#utility.yul\":18054:18119   */\n      tag_318\n        /* \"#utility.yul\":18112:18118   */\n      dup2\n        /* \"#utility.yul\":18104:18110   */\n      dup5\n        /* \"#utility.yul\":18098:18102   */\n      dup5\n        /* \"#utility.yul\":18054:18119   */\n      tag_139\n      jump\t// in\n    tag_318:\n        /* \"#utility.yul\":17989:18125   */\n      pop\n        /* \"#utility.yul\":17936:18125   */\n      pop\n      pop\n      jump\t// out\n        /* \"#utility.yul\":18131:18317   */\n    tag_142:\n        /* \"#utility.yul\":18191:18311   */\n    tag_320:\n        /* \"#utility.yul\":18208:18211   */\n      dup2\n        /* \"#utility.yul\":18201:18206   */\n      dup2\n        /* \"#utility.yul\":18198:18212   */\n      lt\n        /* \"#utility.yul\":18191:18311   */\n      iszero\n      tag_322\n      jumpi\n        /* \"#utility.yul\":18262:18301   */\n      tag_323\n        /* \"#utility.yul\":18299:18300   */\n      0x00\n        /* \"#utility.yul\":18292:18297   */\n      dup3\n        /* \"#utility.yul\":18262:18301   */\n      tag_141\n      jump\t// in\n    tag_323:\n        /* \"#utility.yul\":18235:18236   */\n      0x01\n        /* \"#utility.yul\":18228:18233   */\n      dup2\n        /* \"#utility.yul\":18224:18237   */\n      add\n        /* \"#utility.yul\":18215:18237   */\n      swap1\n      pop\n        /* \"#utility.yul\":18191:18311   */\n      jump(tag_320)\n    tag_322:\n        /* \"#utility.yul\":18131:18317   */\n      pop\n      pop\n      jump\t// out\n        /* \"#utility.yul\":18323:18866   */\n    tag_143:\n        /* \"#utility.yul\":18424:18426   */\n      0x1f\n        /* \"#utility.yul\":18419:18422   */\n      dup3\n        /* \"#utility.yul\":18416:18427   */\n      gt\n        /* \"#utility.yul\":18413:18859   */\n      iszero\n      tag_325\n      jumpi\n        /* \"#utility.yul\":18458:18496   */\n      tag_326\n        /* \"#utility.yul\":18490:18495   */\n      dup2\n        /* \"#utility.yul\":18458:18496   */\n      tag_132\n      jump\t// in\n    tag_326:\n        /* \"#utility.yul\":18542:18571   */\n      tag_327\n        /* \"#utility.yul\":18560:18570   */\n      dup5\n        /* \"#utility.yul\":18542:18571   */\n      tag_133\n      jump\t// in\n    tag_327:\n        /* \"#utility.yul\":18532:18540   */\n      dup2\n        /* \"#utility.yul\":18528:18572   */\n      add\n        /* \"#utility.yul\":18725:18727   */\n      0x20\n        /* \"#utility.yul\":18713:18723   */\n      dup6\n        /* \"#utility.yul\":18710:18728   */\n      lt\n        /* \"#utility.yul\":18707:18756   */\n      iszero\n      tag_328\n      jumpi\n        /* \"#utility.yul\":18746:18754   */\n      dup2\n        /* \"#utility.yul\":18731:18754   */\n      swap1\n      pop\n        /* \"#utility.yul\":18707:18756   */\n    tag_328:\n        /* \"#utility.yul\":18769:18849   */\n      tag_329\n        /* \"#utility.yul\":18825:18847   */\n      tag_330\n        /* \"#utility.yul\":18843:18846   */\n      dup6\n        /* \"#utility.yul\":18825:18847   */\n      tag_133\n      jump\t// in\n    tag_330:\n        /* \"#utility.yul\":18815:18823   */\n      dup4\n        /* \"#utility.yul\":18811:18848   */\n      add\n        /* \"#utility.yul\":18798:18809   */\n      dup3\n        /* \"#utility.yul\":18769:18849   */\n      tag_142\n      jump\t// in\n    tag_329:\n        /* \"#utility.yul\":18428:18859   */\n      pop\n      pop\n        /* \"#utility.yul\":18413:18859   */\n    tag_325:\n        /* \"#utility.yul\":18323:18866   */\n      pop\n      pop\n      pop\n      jump\t// out\n        /* \"#utility.yul\":18872:18989   */\n    tag_144:\n        /* \"#utility.yul\":18926:18934   */\n      0x00\n        /* \"#utility.yul\":18976:18981   */\n      dup3\n        /* \"#utility.yul\":18970:18974   */\n      dup3\n        /* \"#utility.yul\":18966:18982   */\n      shr\n        /* \"#utility.yul\":18945:18982   */\n      swap1\n      pop\n        /* \"#utility.yul\":18872:18989   */\n      swap3\n      swap2\n      pop\n      pop\n      jump\t// out\n        /* \"#utility.yul\":18995:19164   */\n    tag_145:\n        /* \"#utility.yul\":19039:19045   */\n      0x00\n        /* \"#utility.yul\":19072:19123   */\n      tag_333\n        /* \"#utility.yul\":19120:19121   */\n      0x00\n        /* \"#utility.yul\":19116:19122   */\n      not\n        /* \"#utility.yul\":19108:19113   */\n      dup5\n        /* \"#utility.yul\":19105:19106   */\n      0x08\n        /* \"#utility.yul\":19101:19114   */\n      mul\n        /* \"#utility.yul\":19072:19123   */\n      tag_144\n      jump\t// in\n    tag_333:\n        /* \"#utility.yul\":19068:19124   */\n      not\n        /* \"#utility.yul\":19153:19157   */\n      dup1\n        /* \"#utility.yul\":19147:19151   */\n      dup4\n        /* \"#utility.yul\":19143:19158   */\n      and\n        /* \"#utility.yul\":19133:19158   */\n      swap2\n      pop\n        /* \"#utility.yul\":19046:19164   */\n      pop\n        /* \"#utility.yul\":18995:19164   */\n      swap3\n      swap2\n      pop\n      pop\n      jump\t// out\n        /* \"#utility.yul\":19169:19464   */\n    tag_146:\n        /* \"#utility.yul\":19245:19249   */\n      0x00\n        /* \"#utility.yul\":19391:19420   */\n      tag_335\n        /* \"#utility.yul\":19416:19419   */\n      dup4\n        /* \"#utility.yul\":19410:19414   */\n      dup4\n        /* \"#utility.yul\":19391:19420   */\n      tag_145\n      jump\t// in\n    tag_335:\n        /* \"#utility.yul\":19383:19420   */\n      swap2\n      pop\n        /* \"#utility.yul\":19453:19456   */\n      dup3\n        /* \"#utility.yul\":19450:19451   */\n      0x02\n        /* \"#utility.yul\":19446:19457   */\n      mul\n        /* \"#utility.yul\":19440:19444   */\n      dup3\n        /* \"#utility.yul\":19437:19458   */\n      or\n        /* \"#utility.yul\":19429:19458   */\n      swap1\n      pop\n        /* \"#utility.yul\":19169:19464   */\n      swap3\n      swap2\n      pop\n      pop\n      jump\t// out\n        /* \"#utility.yul\":19469:20864   */\n    tag_75:\n        /* \"#utility.yul\":19586:19623   */\n      tag_337\n        /* \"#utility.yul\":19619:19622   */\n      dup3\n        /* \"#utility.yul\":19586:19623   */\n      tag_97\n      jump\t// in\n    tag_337:\n        /* \"#utility.yul\":19688:19706   */\n      0xffffffffffffffff\n        /* \"#utility.yul\":19680:19686   */\n      dup2\n        /* \"#utility.yul\":19677:19707   */\n      gt\n        /* \"#utility.yul\":19674:19730   */\n      iszero\n      tag_338\n      jumpi\n        /* \"#utility.yul\":19710:19728   */\n      tag_339\n      tag_113\n      jump\t// in\n    tag_339:\n        /* \"#utility.yul\":19674:19730   */\n    tag_338:\n        /* \"#utility.yul\":19754:19792   */\n      tag_340\n        /* \"#utility.yul\":19786:19790   */\n      dup3\n        /* \"#utility.yul\":19780:19791   */\n      sload\n        /* \"#utility.yul\":19754:19792   */\n      tag_47\n      jump\t// in\n    tag_340:\n        /* \"#utility.yul\":19839:19906   */\n      tag_341\n        /* \"#utility.yul\":19899:19905   */\n      dup3\n        /* \"#utility.yul\":19891:19897   */\n      dup3\n        /* \"#utility.yul\":19885:19889   */\n      dup6\n        /* \"#utility.yul\":19839:19906   */\n      tag_143\n      jump\t// in\n    tag_341:\n        /* \"#utility.yul\":19933:19934   */\n      0x00\n        /* \"#utility.yul\":19957:19961   */\n      0x20\n        /* \"#utility.yul\":19944:19961   */\n      swap1\n      pop\n        /* \"#utility.yul\":19989:19991   */\n      0x1f\n        /* \"#utility.yul\":19981:19987   */\n      dup4\n        /* \"#utility.yul\":19978:19992   */\n      gt\n        /* \"#utility.yul\":20006:20007   */\n      0x01\n        /* \"#utility.yul\":20001:20619   */\n      dup2\n      eq\n      tag_343\n      jumpi\n        /* \"#utility.yul\":20663:20664   */\n      0x00\n        /* \"#utility.yul\":20680:20686   */\n      dup5\n        /* \"#utility.yul\":20677:20754   */\n      iszero\n      tag_344\n      jumpi\n        /* \"#utility.yul\":20729:20738   */\n      dup3\n        /* \"#utility.yul\":20724:20727   */\n      dup8\n        /* \"#utility.yul\":20720:20739   */\n      add\n        /* \"#utility.yul\":20714:20740   */\n      mload\n        /* \"#utility.yul\":20705:20740   */\n      swap1\n      pop\n        /* \"#utility.yul\":20677:20754   */\n    tag_344:\n        /* \"#utility.yul\":20780:20847   */\n      tag_345\n        /* \"#utility.yul\":20840:20846   */\n      dup6\n        /* \"#utility.yul\":20833:20838   */\n      dup3\n        /* \"#utility.yul\":20780:20847   */\n      tag_146\n      jump\t// in\n    tag_345:\n        /* \"#utility.yul\":20774:20778   */\n      dup7\n        /* \"#utility.yul\":20767:20848   */\n      sstore\n        /* \"#utility.yul\":20636:20858   */\n      pop\n        /* \"#utility.yul\":19971:20858   */\n      jump(tag_342)\n        /* \"#utility.yul\":20001:20619   */\n    tag_343:\n        /* \"#utility.yul\":20053:20057   */\n      0x1f\n        /* \"#utility.yul\":20049:20058   */\n      not\n        /* \"#utility.yul\":20041:20047   */\n      dup5\n        /* \"#utility.yul\":20037:20059   */\n      and\n        /* \"#utility.yul\":20087:20124   */\n      tag_346\n        /* \"#utility.yul\":20119:20123   */\n      dup7\n        /* \"#utility.yul\":20087:20124   */\n      tag_132\n      jump\t// in\n    tag_346:\n        /* \"#utility.yul\":20146:20147   */\n      0x00\n        /* \"#utility.yul\":20160:20368   */\n    tag_347:\n        /* \"#utility.yul\":20174:20181   */\n      dup3\n        /* \"#utility.yul\":20171:20172   */\n      dup2\n        /* \"#utility.yul\":20168:20182   */\n      lt\n        /* \"#utility.yul\":20160:20368   */\n      iszero\n      tag_349\n      jumpi\n        /* \"#utility.yul\":20253:20262   */\n      dup5\n        /* \"#utility.yul\":20248:20251   */\n      dup10\n        /* \"#utility.yul\":20244:20263   */\n      add\n        /* \"#utility.yul\":20238:20264   */\n      mload\n        /* \"#utility.yul\":20230:20236   */\n      dup3\n        /* \"#utility.yul\":20223:20265   */\n      sstore\n        /* \"#utility.yul\":20304:20305   */\n      0x01\n        /* \"#utility.yul\":20296:20302   */\n      dup3\n        /* \"#utility.yul\":20292:20306   */\n      add\n        /* \"#utility.yul\":20282:20306   */\n      swap2\n      pop\n        /* \"#utility.yul\":20351:20353   */\n      0x20\n        /* \"#utility.yul\":20340:20349   */\n      dup6\n        /* \"#utility.yul\":20336:20354   */\n      add\n        /* \"#utility.yul\":20323:20354   */\n      swap5\n      pop\n        /* \"#utility.yul\":20197:20201   */\n      0x20\n        /* \"#utility.yul\":20194:20195   */\n      dup2\n        /* \"#utility.yul\":20190:20202   */\n      add\n        /* \"#utility.yul\":20185:20202   */\n      swap1\n      pop\n        /* \"#utility.yul\":20160:20368   */\n      jump(tag_347)\n    tag_349:\n        /* \"#utility.yul\":20396:20402   */\n      dup7\n        /* \"#utility.yul\":20387:20394   */\n      dup4\n        /* \"#utility.yul\":20384:20403   */\n      lt\n        /* \"#utility.yul\":20381:20560   */\n      iszero\n      tag_350\n      jumpi\n        /* \"#utility.yul\":20454:20463   */\n      dup5\n        /* \"#utility.yul\":20449:20452   */\n      dup10\n        /* \"#utility.yul\":20445:20464   */\n      add\n        /* \"#utility.yul\":20439:20465   */\n      mload\n        /* \"#utility.yul\":20497:20545   */\n      tag_351\n        /* \"#utility.yul\":20539:20543   */\n      0x1f\n        /* \"#utility.yul\":20531:20537   */\n      dup10\n        /* \"#utility.yul\":20527:20544   */\n      and\n        /* \"#utility.yul\":20516:20525   */\n      dup3\n        /* \"#utility.yul\":20497:20545   */\n      tag_145\n      jump\t// in\n    tag_351:\n        /* \"#utility.yul\":20489:20495   */\n      dup4\n        /* \"#utility.yul\":20482:20546   */\n      sstore\n        /* \"#utility.yul\":20404:20560   */\n      pop\n        /* \"#utility.yul\":20381:20560   */\n    tag_350:\n        /* \"#utility.yul\":20606:20607   */\n      0x01\n        /* \"#utility.yul\":20602:20603   */\n      0x02\n        /* \"#utility.yul\":20594:20600   */\n      dup9\n        /* \"#utility.yul\":20590:20604   */\n      mul\n        /* \"#utility.yul\":20586:20608   */\n      add\n        /* \"#utility.yul\":20580:20584   */\n      dup9\n        /* \"#utility.yul\":20573:20609   */\n      sstore\n        /* \"#utility.yul\":20008:20619   */\n      pop\n      pop\n      pop\n        /* \"#utility.yul\":19971:20858   */\n    tag_342:\n      pop\n        /* \"#utility.yul\":19561:20864   */\n      pop\n      pop\n      pop\n        /* \"#utility.yul\":19469:20864   */\n      pop\n      pop\n      jump\t// out\n\n    auxdata: 0xa2646970667358221220c6f3d652590e9c8c2943a834758571707ca7ccb9620f79d148bcead54afdd9e864736f6c634300081a0033\n}\n",
				"bytecode": {
					"linkReferences": {},
					"object": "608060405260055f806101000a81548161ffff021916908361ffff160217905550348015602a575f80fd5b503360025f6101000a81548173ffffffffffffffffffffffffffffffffffffffff021916908373ffffffffffffffffffffffffffffffffffffffff1602179055506112ac806100785f395ff3fe608060405234801561000f575f80fd5b506004361061007b575f3560e01c80636eb10797116100595780636eb10797146100ff5780637c9cd2bc1461011d5780638da5cb5b146101395780639e92b093146101575761007b565b806305a1b4a91461007f578063254e4019146100b357806358bfa4ab146100e3575b5f80fd5b61009960048036038101906100949190610904565b610187565b6040516100aa9594939291906109d0565b60405180910390f35b6100cd60048036038101906100c89190610904565b610278565b6040516100da9190610b01565b60405180910390f35b6100fd60048036038101906100f89190610b58565b6103f0565b005b61010761049d565b6040516101149190610b92565b60405180910390f35b61013760048036038101906101329190610cd7565b6104ae565b005b610141610665565b60405161014e9190610d1e565b60405180910390f35b610171600480360381019061016c9190610d37565b61068a565b60405161017e9190610e90565b60405180910390f35b6001602052815f5260405f2081815481106101a0575f80fd5b905f5260205f2090600502015f9150915050805f015490806001015f9054906101000a900473ffffffffffffffffffffffffffffffffffffffff16908060020180546101eb90610edd565b80601f016020809104026020016040519081016040528092919081815260200182805461021790610edd565b80156102625780601f1061023957610100808354040283529160200191610262565b820191905f5260205f20905b81548152906001019060200180831161024557829003601f168201915b5050505050908060030154908060040154905085565b610280610825565b60015f8473ffffffffffffffffffffffffffffffffffffffff1673ffffffffffffffffffffffffffffffffffffffff1681526020019081526020015f2082815481106102cf576102ce610f0d565b5b905f5260205f2090600502016040518060a00160405290815f8201548152602001600182015f9054906101000a900473ffffffffffffffffffffffffffffffffffffffff1673ffffffffffffffffffffffffffffffffffffffff1673ffffffffffffffffffffffffffffffffffffffff16815260200160028201805461035490610edd565b80601f016020809104026020016040519081016040528092919081815260200182805461038090610edd565b80156103cb5780601f106103a2576101008083540402835291602001916103cb565b820191905f5260205f20905b8154815290600101906020018083116103ae57829003601f168201915b5050505050815260200160038201548152602001600482015481525050905092915050565b60025f9054906101000a900473ffffffffffffffffffffffffffffffffffffffff1673ffffffffffffffffffffffffffffffffffffffff163373ffffffffffffffffffffffffffffffffffffffff161461047f576040517f08c379a000000000000000000000000000000000000000000000000000000000815260040161047690610f84565b60405180910390fd5b805f806101000a81548161ffff021916908361ffff16021790555050565b5f8054906101000a900461ffff1681565b5f8054906101000a900461ffff1661ffff1681511115610503576040517f08c379a00000000000000000000000000000000000000000000000000000000081526004016104fa90610fec565b60405180910390fd5b5f6040518060a0016040528060015f3373ffffffffffffffffffffffffffffffffffffffff1673ffffffffffffffffffffffffffffffffffffffff1681526020019081526020015f208054905081526020013373ffffffffffffffffffffffffffffffffffffffff1681526020018381526020014281526020015f815250905060015f3373ffffffffffffffffffffffffffffffffffffffff1673ffffffffffffffffffffffffffffffffffffffff1681526020019081526020015f2081908060018154018082558091505060019003905f5260205f2090600502015f909190919091505f820151815f01556020820151816001015f6101000a81548173ffffffffffffffffffffffffffffffffffffffff021916908373ffffffffffffffffffffffffffffffffffffffff160217905550604082015181600201908161064a91906111a7565b50606082015181600301556080820151816004015550505050565b60025f9054906101000a900473ffffffffffffffffffffffffffffffffffffffff1681565b606060015f8373ffffffffffffffffffffffffffffffffffffffff1673ffffffffffffffffffffffffffffffffffffffff1681526020019081526020015f20805480602002602001604051908101604052809291908181526020015f905b8282101561081a578382905f5260205f2090600502016040518060a00160405290815f8201548152602001600182015f9054906101000a900473ffffffffffffffffffffffffffffffffffffffff1673ffffffffffffffffffffffffffffffffffffffff1673ffffffffffffffffffffffffffffffffffffffff16815260200160028201805461077790610edd565b80601f01602080910402602001604051908101604052809291908181526020018280546107a390610edd565b80156107ee5780601f106107c5576101008083540402835291602001916107ee565b820191905f5260205f20905b8154815290600101906020018083116107d157829003601f168201915b5050505050815260200160038201548152602001600482015481525050815260200190600101906106e8565b505050509050919050565b6040518060a001604052805f81526020015f73ffffffffffffffffffffffffffffffffffffffff168152602001606081526020015f81526020015f81525090565b5f604051905090565b5f80fd5b5f80fd5b5f73ffffffffffffffffffffffffffffffffffffffff82169050919050565b5f6108a082610877565b9050919050565b6108b081610896565b81146108ba575f80fd5b50565b5f813590506108cb816108a7565b92915050565b5f819050919050565b6108e3816108d1565b81146108ed575f80fd5b50565b5f813590506108fe816108da565b92915050565b5f806040838503121561091a5761091961086f565b5b5f610927858286016108bd565b9250506020610938858286016108f0565b9150509250929050565b61094b816108d1565b82525050565b61095a81610896565b82525050565b5f81519050919050565b5f82825260208201905092915050565b8281835e5f83830152505050565b5f601f19601f8301169050919050565b5f6109a282610960565b6109ac818561096a565b93506109bc81856020860161097a565b6109c581610988565b840191505092915050565b5f60a0820190506109e35f830188610942565b6109f06020830187610951565b8181036040830152610a028186610998565b9050610a116060830185610942565b610a1e6080830184610942565b9695505050505050565b610a31816108d1565b82525050565b610a4081610896565b82525050565b5f82825260208201905092915050565b5f610a6082610960565b610a6a8185610a46565b9350610a7a81856020860161097a565b610a8381610988565b840191505092915050565b5f60a083015f830151610aa35f860182610a28565b506020830151610ab66020860182610a37565b5060408301518482036040860152610ace8282610a56565b9150506060830151610ae36060860182610a28565b506080830151610af66080860182610a28565b508091505092915050565b5f6020820190508181035f830152610b198184610a8e565b905092915050565b5f61ffff82169050919050565b610b3781610b21565b8114610b41575f80fd5b50565b5f81359050610b5281610b2e565b92915050565b5f60208284031215610b6d57610b6c61086f565b5b5f610b7a84828501610b44565b91505092915050565b610b8c81610b21565b82525050565b5f602082019050610ba55f830184610b83565b92915050565b5f80fd5b5f80fd5b7f4e487b71000000000000000000000000000000000000000000000000000000005f52604160045260245ffd5b610be982610988565b810181811067ffffffffffffffff82111715610c0857610c07610bb3565b5b80604052505050565b5f610c1a610866565b9050610c268282610be0565b919050565b5f67ffffffffffffffff821115610c4557610c44610bb3565b5b610c4e82610988565b9050602081019050919050565b828183375f83830152505050565b5f610c7b610c7684610c2b565b610c11565b905082815260208101848484011115610c9757610c96610baf565b5b610ca2848285610c5b565b509392505050565b5f82601f830112610cbe57610cbd610bab565b5b8135610cce848260208601610c69565b91505092915050565b5f60208284031215610cec57610ceb61086f565b5b5f82013567ffffffffffffffff811115610d0957610d08610873565b5b610d1584828501610caa565b91505092915050565b5f602082019050610d315f830184610951565b92915050565b5f60208284031215610d4c57610d4b61086f565b5b5f610d59848285016108bd565b91505092915050565b5f81519050919050565b5f82825260208201905092915050565b5f819050602082019050919050565b5f60a083015f830151610da05f860182610a28565b506020830151610db36020860182610a37565b5060408301518482036040860152610dcb8282610a56565b9150506060830151610de06060860182610a28565b506080830151610df36080860182610a28565b508091505092915050565b5f610e098383610d8b565b905092915050565b5f602082019050919050565b5f610e2782610d62565b610e318185610d6c565b935083602082028501610e4385610d7c565b805f5b85811015610e7e5784840389528151610e5f8582610dfe565b9450610e6a83610e11565b925060208a01995050600181019050610e46565b50829750879550505050505092915050565b5f6020820190508181035f830152610ea88184610e1d565b905092915050565b7f4e487b71000000000000000000000000000000000000000000000000000000005f52602260045260245ffd5b5f6002820490506001821680610ef457607f821691505b602082108103610f0757610f06610eb0565b5b50919050565b7f4e487b71000000000000000000000000000000000000000000000000000000005f52603260045260245ffd5b7f594f5520415245204e4f5420544845204f574e455200000000000000000000005f82015250565b5f610f6e60158361096a565b9150610f7982610f3a565b602082019050919050565b5f6020820190508181035f830152610f9b81610f62565b9050919050565b7f545745455420544f4f204c4f4f4f4f4e472042524f4f4f4f4f4f4f21212121005f82015250565b5f610fd6601f8361096a565b9150610fe182610fa2565b602082019050919050565b5f6020820190508181035f83015261100381610fca565b9050919050565b5f819050815f5260205f209050919050565b5f6020601f8301049050919050565b5f82821b905092915050565b5f600883026110667fffffffffffffffffffffffffffffffffffffffffffffffffffffffffffffffff8261102b565b611070868361102b565b95508019841693508086168417925050509392505050565b5f819050919050565b5f6110ab6110a66110a1846108d1565b611088565b6108d1565b9050919050565b5f819050919050565b6110c483611091565b6110d86110d0826110b2565b848454611037565b825550505050565b5f90565b6110ec6110e0565b6110f78184846110bb565b505050565b5b8181101561111a5761110f5f826110e4565b6001810190506110fd565b5050565b601f82111561115f576111308161100a565b6111398461101c565b81016020851015611148578190505b61115c6111548561101c565b8301826110fc565b50505b505050565b5f82821c905092915050565b5f61117f5f1984600802611164565b1980831691505092915050565b5f6111978383611170565b9150826002028217905092915050565b6111b082610960565b67ffffffffffffffff8111156111c9576111c8610bb3565b5b6111d38254610edd565b6111de82828561111e565b5f60209050601f83116001811461120f575f84156111fd578287015190505b611207858261118c565b86555061126e565b601f19841661121d8661100a565b5f5b828110156112445784890151825560018201915060208501945060208101905061121f565b86831015611261578489015161125d601f891682611170565b8355505b6001600288020188555050505b50505050505056fea2646970667358221220c6f3d652590e9c8c2943a834758571707ca7ccb9620f79d148bcead54afdd9e864736f6c634300081a0033",
					"opcodes": "PUSH1 0x80 PUSH1 0x40 MSTORE PUSH1 0x5 PUSH0 DUP1 PUSH2 0x100 EXP DUP2 SLOAD DUP2 PUSH2 0xFFFF MUL NOT AND SWAP1 DUP4 PUSH2 0xFFFF AND MUL OR SWAP1 SSTORE POP CALLVALUE DUP1 ISZERO PUSH1 0x2A JUMPI PUSH0 DUP1 REVERT JUMPDEST POP CALLER PUSH1 0x2 PUSH0 PUSH2 0x100 EXP DUP2 SLOAD DUP2 PUSH20 0xFFFFFFFFFFFFFFFFFFFFFFFFFFFFFFFFFFFFFFFF MUL NOT AND SWAP1 DUP4 PUSH20 0xFFFFFFFFFFFFFFFFFFFFFFFFFFFFFFFFFFFFFFFF AND MUL OR SWAP1 SSTORE POP PUSH2 0x12AC DUP1 PUSH2 0x78 PUSH0 CODECOPY PUSH0 RETURN INVALID PUSH1 0x80 PUSH1 0x40 MSTORE CALLVALUE DUP1 ISZERO PUSH2 0xF JUMPI PUSH0 DUP1 REVERT JUMPDEST POP PUSH1 0x4 CALLDATASIZE LT PUSH2 0x7B JUMPI PUSH0 CALLDATALOAD PUSH1 0xE0 SHR DUP1 PUSH4 0x6EB10797 GT PUSH2 0x59 JUMPI DUP1 PUSH4 0x6EB10797 EQ PUSH2 0xFF JUMPI DUP1 PUSH4 0x7C9CD2BC EQ PUSH2 0x11D JUMPI DUP1 PUSH4 0x8DA5CB5B EQ PUSH2 0x139 JUMPI DUP1 PUSH4 0x9E92B093 EQ PUSH2 0x157 JUMPI PUSH2 0x7B JUMP JUMPDEST DUP1 PUSH4 0x5A1B4A9 EQ PUSH2 0x7F JUMPI DUP1 PUSH4 0x254E4019 EQ PUSH2 0xB3 JUMPI DUP1 PUSH4 0x58BFA4AB EQ PUSH2 0xE3 JUMPI JUMPDEST PUSH0 DUP1 REVERT JUMPDEST PUSH2 0x99 PUSH1 0x4 DUP1 CALLDATASIZE SUB DUP2 ADD SWAP1 PUSH2 0x94 SWAP2 SWAP1 PUSH2 0x904 JUMP JUMPDEST PUSH2 0x187 JUMP JUMPDEST PUSH1 0x40 MLOAD PUSH2 0xAA SWAP6 SWAP5 SWAP4 SWAP3 SWAP2 SWAP1 PUSH2 0x9D0 JUMP JUMPDEST PUSH1 0x40 MLOAD DUP1 SWAP2 SUB SWAP1 RETURN JUMPDEST PUSH2 0xCD PUSH1 0x4 DUP1 CALLDATASIZE SUB DUP2 ADD SWAP1 PUSH2 0xC8 SWAP2 SWAP1 PUSH2 0x904 JUMP JUMPDEST PUSH2 0x278 JUMP JUMPDEST PUSH1 0x40 MLOAD PUSH2 0xDA SWAP2 SWAP1 PUSH2 0xB01 JUMP JUMPDEST PUSH1 0x40 MLOAD DUP1 SWAP2 SUB SWAP1 RETURN JUMPDEST PUSH2 0xFD PUSH1 0x4 DUP1 CALLDATASIZE SUB DUP2 ADD SWAP1 PUSH2 0xF8 SWAP2 SWAP1 PUSH2 0xB58 JUMP JUMPDEST PUSH2 0x3F0 JUMP JUMPDEST STOP JUMPDEST PUSH2 0x107 PUSH2 0x49D JUMP JUMPDEST PUSH1 0x40 MLOAD PUSH2 0x114 SWAP2 SWAP1 PUSH2 0xB92 JUMP JUMPDEST PUSH1 0x40 MLOAD DUP1 SWAP2 SUB SWAP1 RETURN JUMPDEST PUSH2 0x137 PUSH1 0x4 DUP1 CALLDATASIZE SUB DUP2 ADD SWAP1 PUSH2 0x132 SWAP2 SWAP1 PUSH2 0xCD7 JUMP JUMPDEST PUSH2 0x4AE JUMP JUMPDEST STOP JUMPDEST PUSH2 0x141 PUSH2 0x665 JUMP JUMPDEST PUSH1 0x40 MLOAD PUSH2 0x14E SWAP2 SWAP1 PUSH2 0xD1E JUMP JUMPDEST PUSH1 0x40 MLOAD DUP1 SWAP2 SUB SWAP1 RETURN JUMPDEST PUSH2 0x171 PUSH1 0x4 DUP1 CALLDATASIZE SUB DUP2 ADD SWAP1 PUSH2 0x16C SWAP2 SWAP1 PUSH2 0xD37 JUMP JUMPDEST PUSH2 0x68A JUMP JUMPDEST PUSH1 0x40 MLOAD PUSH2 0x17E SWAP2 SWAP1 PUSH2 0xE90 JUMP JUMPDEST PUSH1 0x40 MLOAD DUP1 SWAP2 SUB SWAP1 RETURN JUMPDEST PUSH1 0x1 PUSH1 0x20 MSTORE DUP2 PUSH0 MSTORE PUSH1 0x40 PUSH0 KECCAK256 DUP2 DUP2 SLOAD DUP2 LT PUSH2 0x1A0 JUMPI PUSH0 DUP1 REVERT JUMPDEST SWAP1 PUSH0 MSTORE PUSH1 0x20 PUSH0 KECCAK256 SWAP1 PUSH1 0x5 MUL ADD PUSH0 SWAP2 POP SWAP2 POP POP DUP1 PUSH0 ADD SLOAD SWAP1 DUP1 PUSH1 0x1 ADD PUSH0 SWAP1 SLOAD SWAP1 PUSH2 0x100 EXP SWAP1 DIV PUSH20 0xFFFFFFFFFFFFFFFFFFFFFFFFFFFFFFFFFFFFFFFF AND SWAP1 DUP1 PUSH1 0x2 ADD DUP1 SLOAD PUSH2 0x1EB SWAP1 PUSH2 0xEDD JUMP JUMPDEST DUP1 PUSH1 0x1F ADD PUSH1 0x20 DUP1 SWAP2 DIV MUL PUSH1 0x20 ADD PUSH1 0x40 MLOAD SWAP1 DUP2 ADD PUSH1 0x40 MSTORE DUP1 SWAP3 SWAP2 SWAP1 DUP2 DUP2 MSTORE PUSH1 0x20 ADD DUP3 DUP1 SLOAD PUSH2 0x217 SWAP1 PUSH2 0xEDD JUMP JUMPDEST DUP1 ISZERO PUSH2 0x262 JUMPI DUP1 PUSH1 0x1F LT PUSH2 0x239 JUMPI PUSH2 0x100 DUP1 DUP4 SLOAD DIV MUL DUP4 MSTORE SWAP2 PUSH1 0x20 ADD SWAP2 PUSH2 0x262 JUMP JUMPDEST DUP3 ADD SWAP2 SWAP1 PUSH0 MSTORE PUSH1 0x20 PUSH0 KECCAK256 SWAP1 JUMPDEST DUP2 SLOAD DUP2 MSTORE SWAP1 PUSH1 0x1 ADD SWAP1 PUSH1 0x20 ADD DUP1 DUP4 GT PUSH2 0x245 JUMPI DUP3 SWAP1 SUB PUSH1 0x1F AND DUP3 ADD SWAP2 JUMPDEST POP POP POP POP POP SWAP1 DUP1 PUSH1 0x3 ADD SLOAD SWAP1 DUP1 PUSH1 0x4 ADD SLOAD SWAP1 POP DUP6 JUMP JUMPDEST PUSH2 0x280 PUSH2 0x825 JUMP JUMPDEST PUSH1 0x1 PUSH0 DUP5 PUSH20 0xFFFFFFFFFFFFFFFFFFFFFFFFFFFFFFFFFFFFFFFF AND PUSH20 0xFFFFFFFFFFFFFFFFFFFFFFFFFFFFFFFFFFFFFFFF AND DUP2 MSTORE PUSH1 0x20 ADD SWAP1 DUP2 MSTORE PUSH1 0x20 ADD PUSH0 KECCAK256 DUP3 DUP2 SLOAD DUP2 LT PUSH2 0x2CF JUMPI PUSH2 0x2CE PUSH2 0xF0D JUMP JUMPDEST JUMPDEST SWAP1 PUSH0 MSTORE PUSH1 0x20 PUSH0 KECCAK256 SWAP1 PUSH1 0x5 MUL ADD PUSH1 0x40 MLOAD DUP1 PUSH1 0xA0 ADD PUSH1 0x40 MSTORE SWAP1 DUP2 PUSH0 DUP3 ADD SLOAD DUP2 MSTORE PUSH1 0x20 ADD PUSH1 0x1 DUP3 ADD PUSH0 SWAP1 SLOAD SWAP1 PUSH2 0x100 EXP SWAP1 DIV PUSH20 0xFFFFFFFFFFFFFFFFFFFFFFFFFFFFFFFFFFFFFFFF AND PUSH20 0xFFFFFFFFFFFFFFFFFFFFFFFFFFFFFFFFFFFFFFFF AND PUSH20 0xFFFFFFFFFFFFFFFFFFFFFFFFFFFFFFFFFFFFFFFF AND DUP2 MSTORE PUSH1 0x20 ADD PUSH1 0x2 DUP3 ADD DUP1 SLOAD PUSH2 0x354 SWAP1 PUSH2 0xEDD JUMP JUMPDEST DUP1 PUSH1 0x1F ADD PUSH1 0x20 DUP1 SWAP2 DIV MUL PUSH1 0x20 ADD PUSH1 0x40 MLOAD SWAP1 DUP2 ADD PUSH1 0x40 MSTORE DUP1 SWAP3 SWAP2 SWAP1 DUP2 DUP2 MSTORE PUSH1 0x20 ADD DUP3 DUP1 SLOAD PUSH2 0x380 SWAP1 PUSH2 0xEDD JUMP JUMPDEST DUP1 ISZERO PUSH2 0x3CB JUMPI DUP1 PUSH1 0x1F LT PUSH2 0x3A2 JUMPI PUSH2 0x100 DUP1 DUP4 SLOAD DIV MUL DUP4 MSTORE SWAP2 PUSH1 0x20 ADD SWAP2 PUSH2 0x3CB JUMP JUMPDEST DUP3 ADD SWAP2 SWAP1 PUSH0 MSTORE PUSH1 0x20 PUSH0 KECCAK256 SWAP1 JUMPDEST DUP2 SLOAD DUP2 MSTORE SWAP1 PUSH1 0x1 ADD SWAP1 PUSH1 0x20 ADD DUP1 DUP4 GT PUSH2 0x3AE JUMPI DUP3 SWAP1 SUB PUSH1 0x1F AND DUP3 ADD SWAP2 JUMPDEST POP POP POP POP POP DUP2 MSTORE PUSH1 0x20 ADD PUSH1 0x3 DUP3 ADD SLOAD DUP2 MSTORE PUSH1 0x20 ADD PUSH1 0x4 DUP3 ADD SLOAD DUP2 MSTORE POP POP SWAP1 POP SWAP3 SWAP2 POP POP JUMP JUMPDEST PUSH1 0x2 PUSH0 SWAP1 SLOAD SWAP1 PUSH2 0x100 EXP SWAP1 DIV PUSH20 0xFFFFFFFFFFFFFFFFFFFFFFFFFFFFFFFFFFFFFFFF AND PUSH20 0xFFFFFFFFFFFFFFFFFFFFFFFFFFFFFFFFFFFFFFFF AND CALLER PUSH20 0xFFFFFFFFFFFFFFFFFFFFFFFFFFFFFFFFFFFFFFFF AND EQ PUSH2 0x47F JUMPI PUSH1 0x40 MLOAD PUSH32 0x8C379A000000000000000000000000000000000000000000000000000000000 DUP2 MSTORE PUSH1 0x4 ADD PUSH2 0x476 SWAP1 PUSH2 0xF84 JUMP JUMPDEST PUSH1 0x40 MLOAD DUP1 SWAP2 SUB SWAP1 REVERT JUMPDEST DUP1 PUSH0 DUP1 PUSH2 0x100 EXP DUP2 SLOAD DUP2 PUSH2 0xFFFF MUL NOT AND SWAP1 DUP4 PUSH2 0xFFFF AND MUL OR SWAP1 SSTORE POP POP JUMP JUMPDEST PUSH0 DUP1 SLOAD SWAP1 PUSH2 0x100 EXP SWAP1 DIV PUSH2 0xFFFF AND DUP2 JUMP JUMPDEST PUSH0 DUP1 SLOAD SWAP1 PUSH2 0x100 EXP SWAP1 DIV PUSH2 0xFFFF AND PUSH2 0xFFFF AND DUP2 MLOAD GT ISZERO PUSH2 0x503 JUMPI PUSH1 0x40 MLOAD PUSH32 0x8C379A000000000000000000000000000000000000000000000000000000000 DUP2 MSTORE PUSH1 0x4 ADD PUSH2 0x4FA SWAP1 PUSH2 0xFEC JUMP JUMPDEST PUSH1 0x40 MLOAD DUP1 SWAP2 SUB SWAP1 REVERT JUMPDEST PUSH0 PUSH1 0x40 MLOAD DUP1 PUSH1 0xA0 ADD PUSH1 0x40 MSTORE DUP1 PUSH1 0x1 PUSH0 CALLER PUSH20 0xFFFFFFFFFFFFFFFFFFFFFFFFFFFFFFFFFFFFFFFF AND PUSH20 0xFFFFFFFFFFFFFFFFFFFFFFFFFFFFFFFFFFFFFFFF AND DUP2 MSTORE PUSH1 0x20 ADD SWAP1 DUP2 MSTORE PUSH1 0x20 ADD PUSH0 KECCAK256 DUP1 SLOAD SWAP1 POP DUP2 MSTORE PUSH1 0x20 ADD CALLER PUSH20 0xFFFFFFFFFFFFFFFFFFFFFFFFFFFFFFFFFFFFFFFF AND DUP2 MSTORE PUSH1 0x20 ADD DUP4 DUP2 MSTORE PUSH1 0x20 ADD TIMESTAMP DUP2 MSTORE PUSH1 0x20 ADD PUSH0 DUP2 MSTORE POP SWAP1 POP PUSH1 0x1 PUSH0 CALLER PUSH20 0xFFFFFFFFFFFFFFFFFFFFFFFFFFFFFFFFFFFFFFFF AND PUSH20 0xFFFFFFFFFFFFFFFFFFFFFFFFFFFFFFFFFFFFFFFF AND DUP2 MSTORE PUSH1 0x20 ADD SWAP1 DUP2 MSTORE PUSH1 0x20 ADD PUSH0 KECCAK256 DUP2 SWAP1 DUP1 PUSH1 0x1 DUP2 SLOAD ADD DUP1 DUP3 SSTORE DUP1 SWAP2 POP POP PUSH1 0x1 SWAP1 SUB SWAP1 PUSH0 MSTORE PUSH1 0x20 PUSH0 KECCAK256 SWAP1 PUSH1 0x5 MUL ADD PUSH0 SWAP1 SWAP2 SWAP1 SWAP2 SWAP1 SWAP2 POP PUSH0 DUP3 ADD MLOAD DUP2 PUSH0 ADD SSTORE PUSH1 0x20 DUP3 ADD MLOAD DUP2 PUSH1 0x1 ADD PUSH0 PUSH2 0x100 EXP DUP2 SLOAD DUP2 PUSH20 0xFFFFFFFFFFFFFFFFFFFFFFFFFFFFFFFFFFFFFFFF MUL NOT AND SWAP1 DUP4 PUSH20 0xFFFFFFFFFFFFFFFFFFFFFFFFFFFFFFFFFFFFFFFF AND MUL OR SWAP1 SSTORE POP PUSH1 0x40 DUP3 ADD MLOAD DUP2 PUSH1 0x2 ADD SWAP1 DUP2 PUSH2 0x64A SWAP2 SWAP1 PUSH2 0x11A7 JUMP JUMPDEST POP PUSH1 0x60 DUP3 ADD MLOAD DUP2 PUSH1 0x3 ADD SSTORE PUSH1 0x80 DUP3 ADD MLOAD DUP2 PUSH1 0x4 ADD SSTORE POP POP POP POP JUMP JUMPDEST PUSH1 0x2 PUSH0 SWAP1 SLOAD SWAP1 PUSH2 0x100 EXP SWAP1 DIV PUSH20 0xFFFFFFFFFFFFFFFFFFFFFFFFFFFFFFFFFFFFFFFF AND DUP2 JUMP JUMPDEST PUSH1 0x60 PUSH1 0x1 PUSH0 DUP4 PUSH20 0xFFFFFFFFFFFFFFFFFFFFFFFFFFFFFFFFFFFFFFFF AND PUSH20 0xFFFFFFFFFFFFFFFFFFFFFFFFFFFFFFFFFFFFFFFF AND DUP2 MSTORE PUSH1 0x20 ADD SWAP1 DUP2 MSTORE PUSH1 0x20 ADD PUSH0 KECCAK256 DUP1 SLOAD DUP1 PUSH1 0x20 MUL PUSH1 0x20 ADD PUSH1 0x40 MLOAD SWAP1 DUP2 ADD PUSH1 0x40 MSTORE DUP1 SWAP3 SWAP2 SWAP1 DUP2 DUP2 MSTORE PUSH1 0x20 ADD PUSH0 SWAP1 JUMPDEST DUP3 DUP3 LT ISZERO PUSH2 0x81A JUMPI DUP4 DUP3 SWAP1 PUSH0 MSTORE PUSH1 0x20 PUSH0 KECCAK256 SWAP1 PUSH1 0x5 MUL ADD PUSH1 0x40 MLOAD DUP1 PUSH1 0xA0 ADD PUSH1 0x40 MSTORE SWAP1 DUP2 PUSH0 DUP3 ADD SLOAD DUP2 MSTORE PUSH1 0x20 ADD PUSH1 0x1 DUP3 ADD PUSH0 SWAP1 SLOAD SWAP1 PUSH2 0x100 EXP SWAP1 DIV PUSH20 0xFFFFFFFFFFFFFFFFFFFFFFFFFFFFFFFFFFFFFFFF AND PUSH20 0xFFFFFFFFFFFFFFFFFFFFFFFFFFFFFFFFFFFFFFFF AND PUSH20 0xFFFFFFFFFFFFFFFFFFFFFFFFFFFFFFFFFFFFFFFF AND DUP2 MSTORE PUSH1 0x20 ADD PUSH1 0x2 DUP3 ADD DUP1 SLOAD PUSH2 0x777 SWAP1 PUSH2 0xEDD JUMP JUMPDEST DUP1 PUSH1 0x1F ADD PUSH1 0x20 DUP1 SWAP2 DIV MUL PUSH1 0x20 ADD PUSH1 0x40 MLOAD SWAP1 DUP2 ADD PUSH1 0x40 MSTORE DUP1 SWAP3 SWAP2 SWAP1 DUP2 DUP2 MSTORE PUSH1 0x20 ADD DUP3 DUP1 SLOAD PUSH2 0x7A3 SWAP1 PUSH2 0xEDD JUMP JUMPDEST DUP1 ISZERO PUSH2 0x7EE JUMPI DUP1 PUSH1 0x1F LT PUSH2 0x7C5 JUMPI PUSH2 0x100 DUP1 DUP4 SLOAD DIV MUL DUP4 MSTORE SWAP2 PUSH1 0x20 ADD SWAP2 PUSH2 0x7EE JUMP JUMPDEST DUP3 ADD SWAP2 SWAP1 PUSH0 MSTORE PUSH1 0x20 PUSH0 KECCAK256 SWAP1 JUMPDEST DUP2 SLOAD DUP2 MSTORE SWAP1 PUSH1 0x1 ADD SWAP1 PUSH1 0x20 ADD DUP1 DUP4 GT PUSH2 0x7D1 JUMPI DUP3 SWAP1 SUB PUSH1 0x1F AND DUP3 ADD SWAP2 JUMPDEST POP POP POP POP POP DUP2 MSTORE PUSH1 0x20 ADD PUSH1 0x3 DUP3 ADD SLOAD DUP2 MSTORE PUSH1 0x20 ADD PUSH1 0x4 DUP3 ADD SLOAD DUP2 MSTORE POP POP DUP2 MSTORE PUSH1 0x20 ADD SWAP1 PUSH1 0x1 ADD SWAP1 PUSH2 0x6E8 JUMP JUMPDEST POP POP POP POP SWAP1 POP SWAP2 SWAP1 POP JUMP JUMPDEST PUSH1 0x40 MLOAD DUP1 PUSH1 0xA0 ADD PUSH1 0x40 MSTORE DUP1 PUSH0 DUP2 MSTORE PUSH1 0x20 ADD PUSH0 PUSH20 0xFFFFFFFFFFFFFFFFFFFFFFFFFFFFFFFFFFFFFFFF AND DUP2 MSTORE PUSH1 0x20 ADD PUSH1 0x60 DUP2 MSTORE PUSH1 0x20 ADD PUSH0 DUP2 MSTORE PUSH1 0x20 ADD PUSH0 DUP2 MSTORE POP SWAP1 JUMP JUMPDEST PUSH0 PUSH1 0x40 MLOAD SWAP1 POP SWAP1 JUMP JUMPDEST PUSH0 DUP1 REVERT JUMPDEST PUSH0 DUP1 REVERT JUMPDEST PUSH0 PUSH20 0xFFFFFFFFFFFFFFFFFFFFFFFFFFFFFFFFFFFFFFFF DUP3 AND SWAP1 POP SWAP2 SWAP1 POP JUMP JUMPDEST PUSH0 PUSH2 0x8A0 DUP3 PUSH2 0x877 JUMP JUMPDEST SWAP1 POP SWAP2 SWAP1 POP JUMP JUMPDEST PUSH2 0x8B0 DUP2 PUSH2 0x896 JUMP JUMPDEST DUP2 EQ PUSH2 0x8BA JUMPI PUSH0 DUP1 REVERT JUMPDEST POP JUMP JUMPDEST PUSH0 DUP2 CALLDATALOAD SWAP1 POP PUSH2 0x8CB DUP2 PUSH2 0x8A7 JUMP JUMPDEST SWAP3 SWAP2 POP POP JUMP JUMPDEST PUSH0 DUP2 SWAP1 POP SWAP2 SWAP1 POP JUMP JUMPDEST PUSH2 0x8E3 DUP2 PUSH2 0x8D1 JUMP JUMPDEST DUP2 EQ PUSH2 0x8ED JUMPI PUSH0 DUP1 REVERT JUMPDEST POP JUMP JUMPDEST PUSH0 DUP2 CALLDATALOAD SWAP1 POP PUSH2 0x8FE DUP2 PUSH2 0x8DA JUMP JUMPDEST SWAP3 SWAP2 POP POP JUMP JUMPDEST PUSH0 DUP1 PUSH1 0x40 DUP4 DUP6 SUB SLT ISZERO PUSH2 0x91A JUMPI PUSH2 0x919 PUSH2 0x86F JUMP JUMPDEST JUMPDEST PUSH0 PUSH2 0x927 DUP6 DUP3 DUP7 ADD PUSH2 0x8BD JUMP JUMPDEST SWAP3 POP POP PUSH1 0x20 PUSH2 0x938 DUP6 DUP3 DUP7 ADD PUSH2 0x8F0 JUMP JUMPDEST SWAP2 POP POP SWAP3 POP SWAP3 SWAP1 POP JUMP JUMPDEST PUSH2 0x94B DUP2 PUSH2 0x8D1 JUMP JUMPDEST DUP3 MSTORE POP POP JUMP JUMPDEST PUSH2 0x95A DUP2 PUSH2 0x896 JUMP JUMPDEST DUP3 MSTORE POP POP JUMP JUMPDEST PUSH0 DUP2 MLOAD SWAP1 POP SWAP2 SWAP1 POP JUMP JUMPDEST PUSH0 DUP3 DUP3 MSTORE PUSH1 0x20 DUP3 ADD SWAP1 POP SWAP3 SWAP2 POP POP JUMP JUMPDEST DUP3 DUP2 DUP4 MCOPY PUSH0 DUP4 DUP4 ADD MSTORE POP POP POP JUMP JUMPDEST PUSH0 PUSH1 0x1F NOT PUSH1 0x1F DUP4 ADD AND SWAP1 POP SWAP2 SWAP1 POP JUMP JUMPDEST PUSH0 PUSH2 0x9A2 DUP3 PUSH2 0x960 JUMP JUMPDEST PUSH2 0x9AC DUP2 DUP6 PUSH2 0x96A JUMP JUMPDEST SWAP4 POP PUSH2 0x9BC DUP2 DUP6 PUSH1 0x20 DUP7 ADD PUSH2 0x97A JUMP JUMPDEST PUSH2 0x9C5 DUP2 PUSH2 0x988 JUMP JUMPDEST DUP5 ADD SWAP2 POP POP SWAP3 SWAP2 POP POP JUMP JUMPDEST PUSH0 PUSH1 0xA0 DUP3 ADD SWAP1 POP PUSH2 0x9E3 PUSH0 DUP4 ADD DUP9 PUSH2 0x942 JUMP JUMPDEST PUSH2 0x9F0 PUSH1 0x20 DUP4 ADD DUP8 PUSH2 0x951 JUMP JUMPDEST DUP2 DUP2 SUB PUSH1 0x40 DUP4 ADD MSTORE PUSH2 0xA02 DUP2 DUP7 PUSH2 0x998 JUMP JUMPDEST SWAP1 POP PUSH2 0xA11 PUSH1 0x60 DUP4 ADD DUP6 PUSH2 0x942 JUMP JUMPDEST PUSH2 0xA1E PUSH1 0x80 DUP4 ADD DUP5 PUSH2 0x942 JUMP JUMPDEST SWAP7 SWAP6 POP POP POP POP POP POP JUMP JUMPDEST PUSH2 0xA31 DUP2 PUSH2 0x8D1 JUMP JUMPDEST DUP3 MSTORE POP POP JUMP JUMPDEST PUSH2 0xA40 DUP2 PUSH2 0x896 JUMP JUMPDEST DUP3 MSTORE POP POP JUMP JUMPDEST PUSH0 DUP3 DUP3 MSTORE PUSH1 0x20 DUP3 ADD SWAP1 POP SWAP3 SWAP2 POP POP JUMP JUMPDEST PUSH0 PUSH2 0xA60 DUP3 PUSH2 0x960 JUMP JUMPDEST PUSH2 0xA6A DUP2 DUP6 PUSH2 0xA46 JUMP JUMPDEST SWAP4 POP PUSH2 0xA7A DUP2 DUP6 PUSH1 0x20 DUP7 ADD PUSH2 0x97A JUMP JUMPDEST PUSH2 0xA83 DUP2 PUSH2 0x988 JUMP JUMPDEST DUP5 ADD SWAP2 POP POP SWAP3 SWAP2 POP POP JUMP JUMPDEST PUSH0 PUSH1 0xA0 DUP4 ADD PUSH0 DUP4 ADD MLOAD PUSH2 0xAA3 PUSH0 DUP7 ADD DUP3 PUSH2 0xA28 JUMP JUMPDEST POP PUSH1 0x20 DUP4 ADD MLOAD PUSH2 0xAB6 PUSH1 0x20 DUP7 ADD DUP3 PUSH2 0xA37 JUMP JUMPDEST POP PUSH1 0x40 DUP4 ADD MLOAD DUP5 DUP3 SUB PUSH1 0x40 DUP7 ADD MSTORE PUSH2 0xACE DUP3 DUP3 PUSH2 0xA56 JUMP JUMPDEST SWAP2 POP POP PUSH1 0x60 DUP4 ADD MLOAD PUSH2 0xAE3 PUSH1 0x60 DUP7 ADD DUP3 PUSH2 0xA28 JUMP JUMPDEST POP PUSH1 0x80 DUP4 ADD MLOAD PUSH2 0xAF6 PUSH1 0x80 DUP7 ADD DUP3 PUSH2 0xA28 JUMP JUMPDEST POP DUP1 SWAP2 POP POP SWAP3 SWAP2 POP POP JUMP JUMPDEST PUSH0 PUSH1 0x20 DUP3 ADD SWAP1 POP DUP2 DUP2 SUB PUSH0 DUP4 ADD MSTORE PUSH2 0xB19 DUP2 DUP5 PUSH2 0xA8E JUMP JUMPDEST SWAP1 POP SWAP3 SWAP2 POP POP JUMP JUMPDEST PUSH0 PUSH2 0xFFFF DUP3 AND SWAP1 POP SWAP2 SWAP1 POP JUMP JUMPDEST PUSH2 0xB37 DUP2 PUSH2 0xB21 JUMP JUMPDEST DUP2 EQ PUSH2 0xB41 JUMPI PUSH0 DUP1 REVERT JUMPDEST POP JUMP JUMPDEST PUSH0 DUP2 CALLDATALOAD SWAP1 POP PUSH2 0xB52 DUP2 PUSH2 0xB2E JUMP JUMPDEST SWAP3 SWAP2 POP POP JUMP JUMPDEST PUSH0 PUSH1 0x20 DUP3 DUP5 SUB SLT ISZERO PUSH2 0xB6D JUMPI PUSH2 0xB6C PUSH2 0x86F JUMP JUMPDEST JUMPDEST PUSH0 PUSH2 0xB7A DUP5 DUP3 DUP6 ADD PUSH2 0xB44 JUMP JUMPDEST SWAP2 POP POP SWAP3 SWAP2 POP POP JUMP JUMPDEST PUSH2 0xB8C DUP2 PUSH2 0xB21 JUMP JUMPDEST DUP3 MSTORE POP POP JUMP JUMPDEST PUSH0 PUSH1 0x20 DUP3 ADD SWAP1 POP PUSH2 0xBA5 PUSH0 DUP4 ADD DUP5 PUSH2 0xB83 JUMP JUMPDEST SWAP3 SWAP2 POP POP JUMP JUMPDEST PUSH0 DUP1 REVERT JUMPDEST PUSH0 DUP1 REVERT JUMPDEST PUSH32 0x4E487B7100000000000000000000000000000000000000000000000000000000 PUSH0 MSTORE PUSH1 0x41 PUSH1 0x4 MSTORE PUSH1 0x24 PUSH0 REVERT JUMPDEST PUSH2 0xBE9 DUP3 PUSH2 0x988 JUMP JUMPDEST DUP2 ADD DUP2 DUP2 LT PUSH8 0xFFFFFFFFFFFFFFFF DUP3 GT OR ISZERO PUSH2 0xC08 JUMPI PUSH2 0xC07 PUSH2 0xBB3 JUMP JUMPDEST JUMPDEST DUP1 PUSH1 0x40 MSTORE POP POP POP JUMP JUMPDEST PUSH0 PUSH2 0xC1A PUSH2 0x866 JUMP JUMPDEST SWAP1 POP PUSH2 0xC26 DUP3 DUP3 PUSH2 0xBE0 JUMP JUMPDEST SWAP2 SWAP1 POP JUMP JUMPDEST PUSH0 PUSH8 0xFFFFFFFFFFFFFFFF DUP3 GT ISZERO PUSH2 0xC45 JUMPI PUSH2 0xC44 PUSH2 0xBB3 JUMP JUMPDEST JUMPDEST PUSH2 0xC4E DUP3 PUSH2 0x988 JUMP JUMPDEST SWAP1 POP PUSH1 0x20 DUP2 ADD SWAP1 POP SWAP2 SWAP1 POP JUMP JUMPDEST DUP3 DUP2 DUP4 CALLDATACOPY PUSH0 DUP4 DUP4 ADD MSTORE POP POP POP JUMP JUMPDEST PUSH0 PUSH2 0xC7B PUSH2 0xC76 DUP5 PUSH2 0xC2B JUMP JUMPDEST PUSH2 0xC11 JUMP JUMPDEST SWAP1 POP DUP3 DUP2 MSTORE PUSH1 0x20 DUP2 ADD DUP5 DUP5 DUP5 ADD GT ISZERO PUSH2 0xC97 JUMPI PUSH2 0xC96 PUSH2 0xBAF JUMP JUMPDEST JUMPDEST PUSH2 0xCA2 DUP5 DUP3 DUP6 PUSH2 0xC5B JUMP JUMPDEST POP SWAP4 SWAP3 POP POP POP JUMP JUMPDEST PUSH0 DUP3 PUSH1 0x1F DUP4 ADD SLT PUSH2 0xCBE JUMPI PUSH2 0xCBD PUSH2 0xBAB JUMP JUMPDEST JUMPDEST DUP2 CALLDATALOAD PUSH2 0xCCE DUP5 DUP3 PUSH1 0x20 DUP7 ADD PUSH2 0xC69 JUMP JUMPDEST SWAP2 POP POP SWAP3 SWAP2 POP POP JUMP JUMPDEST PUSH0 PUSH1 0x20 DUP3 DUP5 SUB SLT ISZERO PUSH2 0xCEC JUMPI PUSH2 0xCEB PUSH2 0x86F JUMP JUMPDEST JUMPDEST PUSH0 DUP3 ADD CALLDATALOAD PUSH8 0xFFFFFFFFFFFFFFFF DUP2 GT ISZERO PUSH2 0xD09 JUMPI PUSH2 0xD08 PUSH2 0x873 JUMP JUMPDEST JUMPDEST PUSH2 0xD15 DUP5 DUP3 DUP6 ADD PUSH2 0xCAA JUMP JUMPDEST SWAP2 POP POP SWAP3 SWAP2 POP POP JUMP JUMPDEST PUSH0 PUSH1 0x20 DUP3 ADD SWAP1 POP PUSH2 0xD31 PUSH0 DUP4 ADD DUP5 PUSH2 0x951 JUMP JUMPDEST SWAP3 SWAP2 POP POP JUMP JUMPDEST PUSH0 PUSH1 0x20 DUP3 DUP5 SUB SLT ISZERO PUSH2 0xD4C JUMPI PUSH2 0xD4B PUSH2 0x86F JUMP JUMPDEST JUMPDEST PUSH0 PUSH2 0xD59 DUP5 DUP3 DUP6 ADD PUSH2 0x8BD JUMP JUMPDEST SWAP2 POP POP SWAP3 SWAP2 POP POP JUMP JUMPDEST PUSH0 DUP2 MLOAD SWAP1 POP SWAP2 SWAP1 POP JUMP JUMPDEST PUSH0 DUP3 DUP3 MSTORE PUSH1 0x20 DUP3 ADD SWAP1 POP SWAP3 SWAP2 POP POP JUMP JUMPDEST PUSH0 DUP2 SWAP1 POP PUSH1 0x20 DUP3 ADD SWAP1 POP SWAP2 SWAP1 POP JUMP JUMPDEST PUSH0 PUSH1 0xA0 DUP4 ADD PUSH0 DUP4 ADD MLOAD PUSH2 0xDA0 PUSH0 DUP7 ADD DUP3 PUSH2 0xA28 JUMP JUMPDEST POP PUSH1 0x20 DUP4 ADD MLOAD PUSH2 0xDB3 PUSH1 0x20 DUP7 ADD DUP3 PUSH2 0xA37 JUMP JUMPDEST POP PUSH1 0x40 DUP4 ADD MLOAD DUP5 DUP3 SUB PUSH1 0x40 DUP7 ADD MSTORE PUSH2 0xDCB DUP3 DUP3 PUSH2 0xA56 JUMP JUMPDEST SWAP2 POP POP PUSH1 0x60 DUP4 ADD MLOAD PUSH2 0xDE0 PUSH1 0x60 DUP7 ADD DUP3 PUSH2 0xA28 JUMP JUMPDEST POP PUSH1 0x80 DUP4 ADD MLOAD PUSH2 0xDF3 PUSH1 0x80 DUP7 ADD DUP3 PUSH2 0xA28 JUMP JUMPDEST POP DUP1 SWAP2 POP POP SWAP3 SWAP2 POP POP JUMP JUMPDEST PUSH0 PUSH2 0xE09 DUP4 DUP4 PUSH2 0xD8B JUMP JUMPDEST SWAP1 POP SWAP3 SWAP2 POP POP JUMP JUMPDEST PUSH0 PUSH1 0x20 DUP3 ADD SWAP1 POP SWAP2 SWAP1 POP JUMP JUMPDEST PUSH0 PUSH2 0xE27 DUP3 PUSH2 0xD62 JUMP JUMPDEST PUSH2 0xE31 DUP2 DUP6 PUSH2 0xD6C JUMP JUMPDEST SWAP4 POP DUP4 PUSH1 0x20 DUP3 MUL DUP6 ADD PUSH2 0xE43 DUP6 PUSH2 0xD7C JUMP JUMPDEST DUP1 PUSH0 JUMPDEST DUP6 DUP2 LT ISZERO PUSH2 0xE7E JUMPI DUP5 DUP5 SUB DUP10 MSTORE DUP2 MLOAD PUSH2 0xE5F DUP6 DUP3 PUSH2 0xDFE JUMP JUMPDEST SWAP5 POP PUSH2 0xE6A DUP4 PUSH2 0xE11 JUMP JUMPDEST SWAP3 POP PUSH1 0x20 DUP11 ADD SWAP10 POP POP PUSH1 0x1 DUP2 ADD SWAP1 POP PUSH2 0xE46 JUMP JUMPDEST POP DUP3 SWAP8 POP DUP8 SWAP6 POP POP POP POP POP POP SWAP3 SWAP2 POP POP JUMP JUMPDEST PUSH0 PUSH1 0x20 DUP3 ADD SWAP1 POP DUP2 DUP2 SUB PUSH0 DUP4 ADD MSTORE PUSH2 0xEA8 DUP2 DUP5 PUSH2 0xE1D JUMP JUMPDEST SWAP1 POP SWAP3 SWAP2 POP POP JUMP JUMPDEST PUSH32 0x4E487B7100000000000000000000000000000000000000000000000000000000 PUSH0 MSTORE PUSH1 0x22 PUSH1 0x4 MSTORE PUSH1 0x24 PUSH0 REVERT JUMPDEST PUSH0 PUSH1 0x2 DUP3 DIV SWAP1 POP PUSH1 0x1 DUP3 AND DUP1 PUSH2 0xEF4 JUMPI PUSH1 0x7F DUP3 AND SWAP2 POP JUMPDEST PUSH1 0x20 DUP3 LT DUP2 SUB PUSH2 0xF07 JUMPI PUSH2 0xF06 PUSH2 0xEB0 JUMP JUMPDEST JUMPDEST POP SWAP2 SWAP1 POP JUMP JUMPDEST PUSH32 0x4E487B7100000000000000000000000000000000000000000000000000000000 PUSH0 MSTORE PUSH1 0x32 PUSH1 0x4 MSTORE PUSH1 0x24 PUSH0 REVERT JUMPDEST PUSH32 0x594F5520415245204E4F5420544845204F574E45520000000000000000000000 PUSH0 DUP3 ADD MSTORE POP JUMP JUMPDEST PUSH0 PUSH2 0xF6E PUSH1 0x15 DUP4 PUSH2 0x96A JUMP JUMPDEST SWAP2 POP PUSH2 0xF79 DUP3 PUSH2 0xF3A JUMP JUMPDEST PUSH1 0x20 DUP3 ADD SWAP1 POP SWAP2 SWAP1 POP JUMP JUMPDEST PUSH0 PUSH1 0x20 DUP3 ADD SWAP1 POP DUP2 DUP2 SUB PUSH0 DUP4 ADD MSTORE PUSH2 0xF9B DUP2 PUSH2 0xF62 JUMP JUMPDEST SWAP1 POP SWAP2 SWAP1 POP JUMP JUMPDEST PUSH32 0x545745455420544F4F204C4F4F4F4F4E472042524F4F4F4F4F4F4F2121212100 PUSH0 DUP3 ADD MSTORE POP JUMP JUMPDEST PUSH0 PUSH2 0xFD6 PUSH1 0x1F DUP4 PUSH2 0x96A JUMP JUMPDEST SWAP2 POP PUSH2 0xFE1 DUP3 PUSH2 0xFA2 JUMP JUMPDEST PUSH1 0x20 DUP3 ADD SWAP1 POP SWAP2 SWAP1 POP JUMP JUMPDEST PUSH0 PUSH1 0x20 DUP3 ADD SWAP1 POP DUP2 DUP2 SUB PUSH0 DUP4 ADD MSTORE PUSH2 0x1003 DUP2 PUSH2 0xFCA JUMP JUMPDEST SWAP1 POP SWAP2 SWAP1 POP JUMP JUMPDEST PUSH0 DUP2 SWAP1 POP DUP2 PUSH0 MSTORE PUSH1 0x20 PUSH0 KECCAK256 SWAP1 POP SWAP2 SWAP1 POP JUMP JUMPDEST PUSH0 PUSH1 0x20 PUSH1 0x1F DUP4 ADD DIV SWAP1 POP SWAP2 SWAP1 POP JUMP JUMPDEST PUSH0 DUP3 DUP3 SHL SWAP1 POP SWAP3 SWAP2 POP POP JUMP JUMPDEST PUSH0 PUSH1 0x8 DUP4 MUL PUSH2 0x1066 PUSH32 0xFFFFFFFFFFFFFFFFFFFFFFFFFFFFFFFFFFFFFFFFFFFFFFFFFFFFFFFFFFFFFFFF DUP3 PUSH2 0x102B JUMP JUMPDEST PUSH2 0x1070 DUP7 DUP4 PUSH2 0x102B JUMP JUMPDEST SWAP6 POP DUP1 NOT DUP5 AND SWAP4 POP DUP1 DUP7 AND DUP5 OR SWAP3 POP POP POP SWAP4 SWAP3 POP POP POP JUMP JUMPDEST PUSH0 DUP2 SWAP1 POP SWAP2 SWAP1 POP JUMP JUMPDEST PUSH0 PUSH2 0x10AB PUSH2 0x10A6 PUSH2 0x10A1 DUP5 PUSH2 0x8D1 JUMP JUMPDEST PUSH2 0x1088 JUMP JUMPDEST PUSH2 0x8D1 JUMP JUMPDEST SWAP1 POP SWAP2 SWAP1 POP JUMP JUMPDEST PUSH0 DUP2 SWAP1 POP SWAP2 SWAP1 POP JUMP JUMPDEST PUSH2 0x10C4 DUP4 PUSH2 0x1091 JUMP JUMPDEST PUSH2 0x10D8 PUSH2 0x10D0 DUP3 PUSH2 0x10B2 JUMP JUMPDEST DUP5 DUP5 SLOAD PUSH2 0x1037 JUMP JUMPDEST DUP3 SSTORE POP POP POP POP JUMP JUMPDEST PUSH0 SWAP1 JUMP JUMPDEST PUSH2 0x10EC PUSH2 0x10E0 JUMP JUMPDEST PUSH2 0x10F7 DUP2 DUP5 DUP5 PUSH2 0x10BB JUMP JUMPDEST POP POP POP JUMP JUMPDEST JUMPDEST DUP2 DUP2 LT ISZERO PUSH2 0x111A JUMPI PUSH2 0x110F PUSH0 DUP3 PUSH2 0x10E4 JUMP JUMPDEST PUSH1 0x1 DUP2 ADD SWAP1 POP PUSH2 0x10FD JUMP JUMPDEST POP POP JUMP JUMPDEST PUSH1 0x1F DUP3 GT ISZERO PUSH2 0x115F JUMPI PUSH2 0x1130 DUP2 PUSH2 0x100A JUMP JUMPDEST PUSH2 0x1139 DUP5 PUSH2 0x101C JUMP JUMPDEST DUP2 ADD PUSH1 0x20 DUP6 LT ISZERO PUSH2 0x1148 JUMPI DUP2 SWAP1 POP JUMPDEST PUSH2 0x115C PUSH2 0x1154 DUP6 PUSH2 0x101C JUMP JUMPDEST DUP4 ADD DUP3 PUSH2 0x10FC JUMP JUMPDEST POP POP JUMPDEST POP POP POP JUMP JUMPDEST PUSH0 DUP3 DUP3 SHR SWAP1 POP SWAP3 SWAP2 POP POP JUMP JUMPDEST PUSH0 PUSH2 0x117F PUSH0 NOT DUP5 PUSH1 0x8 MUL PUSH2 0x1164 JUMP JUMPDEST NOT DUP1 DUP4 AND SWAP2 POP POP SWAP3 SWAP2 POP POP JUMP JUMPDEST PUSH0 PUSH2 0x1197 DUP4 DUP4 PUSH2 0x1170 JUMP JUMPDEST SWAP2 POP DUP3 PUSH1 0x2 MUL DUP3 OR SWAP1 POP SWAP3 SWAP2 POP POP JUMP JUMPDEST PUSH2 0x11B0 DUP3 PUSH2 0x960 JUMP JUMPDEST PUSH8 0xFFFFFFFFFFFFFFFF DUP2 GT ISZERO PUSH2 0x11C9 JUMPI PUSH2 0x11C8 PUSH2 0xBB3 JUMP JUMPDEST JUMPDEST PUSH2 0x11D3 DUP3 SLOAD PUSH2 0xEDD JUMP JUMPDEST PUSH2 0x11DE DUP3 DUP3 DUP6 PUSH2 0x111E JUMP JUMPDEST PUSH0 PUSH1 0x20 SWAP1 POP PUSH1 0x1F DUP4 GT PUSH1 0x1 DUP2 EQ PUSH2 0x120F JUMPI PUSH0 DUP5 ISZERO PUSH2 0x11FD JUMPI DUP3 DUP8 ADD MLOAD SWAP1 POP JUMPDEST PUSH2 0x1207 DUP6 DUP3 PUSH2 0x118C JUMP JUMPDEST DUP7 SSTORE POP PUSH2 0x126E JUMP JUMPDEST PUSH1 0x1F NOT DUP5 AND PUSH2 0x121D DUP7 PUSH2 0x100A JUMP JUMPDEST PUSH0 JUMPDEST DUP3 DUP2 LT ISZERO PUSH2 0x1244 JUMPI DUP5 DUP10 ADD MLOAD DUP3 SSTORE PUSH1 0x1 DUP3 ADD SWAP2 POP PUSH1 0x20 DUP6 ADD SWAP5 POP PUSH1 0x20 DUP2 ADD SWAP1 POP PUSH2 0x121F JUMP JUMPDEST DUP7 DUP4 LT ISZERO PUSH2 0x1261 JUMPI DUP5 DUP10 ADD MLOAD PUSH2 0x125D PUSH1 0x1F DUP10 AND DUP3 PUSH2 0x1170 JUMP JUMPDEST DUP4 SSTORE POP JUMPDEST PUSH1 0x1 PUSH1 0x2 DUP9 MUL ADD DUP9 SSTORE POP POP POP JUMPDEST POP POP POP POP POP POP JUMP INVALID LOG2 PUSH5 0x6970667358 0x22 SLT KECCAK256 0xC6 RETURN 0xD6 MSTORE MSIZE 0xE SWAP13 DUP13 0x29 NUMBER 0xA8 CALLVALUE PUSH22 0x8571707CA7CCB9620F79D148BCEAD54AFDD9E864736F PUSH13 0x634300081A0033000000000000 "
				},
				"gasEstimates": {
					"creation": {
						"codeDepositCost": "956000",
						"executionCost": "49523",
						"totalCost": "1005523"
					},
					"external": {
						"MAX_TWEET_LENGTH()": "2463",
						"changeTweetLength(uint16)": "26887",
						"createTweet(string)": "infinite",
						"getTweets(address)": "infinite",
						"owner()": "2552",
						"singleTweet(address,uint256)": "infinite",
						"tweets(address,uint256)": "infinite"
					}
				},
				"methodIdentifiers": {
					"MAX_TWEET_LENGTH()": "6eb10797",
					"changeTweetLength(uint16)": "58bfa4ab",
					"createTweet(string)": "7c9cd2bc",
					"getTweets(address)": "9e92b093",
					"owner()": "8da5cb5b",
					"singleTweet(address,uint256)": "254e4019",
					"tweets(address,uint256)": "05a1b4a9"
				}
			},
			"storageLayout": {
				"storage": [
					{
						"astId": 4,
						"contract": "Solidity/Solidity/Contracts/Projects/twitter_modifiers.sol:twitterModifiers",
						"label": "MAX_TWEET_LENGTH",
						"offset": 0,
						"slot": "0",
						"type": "t_uint16"
					},
					{
						"astId": 21,
						"contract": "Solidity/Solidity/Contracts/Projects/twitter_modifiers.sol:twitterModifiers",
						"label": "tweets",
						"offset": 0,
						"slot": "1",
						"type": "t_mapping(t_address,t_array(t_struct(Tweet)15_storage)dyn_storage)"
					},
					{
						"astId": 23,
						"contract": "Solidity/Solidity/Contracts/Projects/twitter_modifiers.sol:twitterModifiers",
						"label": "owner",
						"offset": 0,
						"slot": "2",
						"type": "t_address"
					}
				],
				"types": {
					"t_address": {
						"encoding": "inplace",
						"label": "address",
						"numberOfBytes": "20"
					},
					"t_array(t_struct(Tweet)15_storage)dyn_storage": {
						"base": "t_struct(Tweet)15_storage",
						"encoding": "dynamic_array",
						"label": "struct twitterModifiers.Tweet[]",
						"numberOfBytes": "32"
					},
					"t_mapping(t_address,t_array(t_struct(Tweet)15_storage)dyn_storage)": {
						"encoding": "mapping",
						"key": "t_address",
						"label": "mapping(address => struct twitterModifiers.Tweet[])",
						"numberOfBytes": "32",
						"value": "t_array(t_struct(Tweet)15_storage)dyn_storage"
					},
					"t_string_storage": {
						"encoding": "bytes",
						"label": "string",
						"numberOfBytes": "32"
					},
					"t_struct(Tweet)15_storage": {
						"encoding": "inplace",
						"label": "struct twitterModifiers.Tweet",
						"members": [
							{
								"astId": 6,
								"contract": "Solidity/Solidity/Contracts/Projects/twitter_modifiers.sol:twitterModifiers",
								"label": "id",
								"offset": 0,
								"slot": "0",
								"type": "t_uint256"
							},
							{
								"astId": 8,
								"contract": "Solidity/Solidity/Contracts/Projects/twitter_modifiers.sol:twitterModifiers",
								"label": "author",
								"offset": 0,
								"slot": "1",
								"type": "t_address"
							},
							{
								"astId": 10,
								"contract": "Solidity/Solidity/Contracts/Projects/twitter_modifiers.sol:twitterModifiers",
								"label": "content",
								"offset": 0,
								"slot": "2",
								"type": "t_string_storage"
							},
							{
								"astId": 12,
								"contract": "Solidity/Solidity/Contracts/Projects/twitter_modifiers.sol:twitterModifiers",
								"label": "timestamp",
								"offset": 0,
								"slot": "3",
								"type": "t_uint256"
							},
							{
								"astId": 14,
								"contract": "Solidity/Solidity/Contracts/Projects/twitter_modifiers.sol:twitterModifiers",
								"label": "likes",
								"offset": 0,
								"slot": "4",
								"type": "t_uint256"
							}
						],
						"numberOfBytes": "160"
					},
					"t_uint16": {
						"encoding": "inplace",
						"label": "uint16",
						"numberOfBytes": "2"
					},
					"t_uint256": {
						"encoding": "inplace",
						"label": "uint256",
						"numberOfBytes": "32"
					}
				}
			},
			"userdoc": {
				"kind": "user",
				"methods": {},
				"version": 1
			}
		}
	}
}